{
  "_format": "hh-sol-artifact-1",
  "contractName": "SheBloomsStaking",
  "sourceName": "contracts/SheBloomsStaking.sol",
  "abi": [
    {
      "inputs": [
        {
          "internalType": "contract SheBloomsCollection",
          "name": "_nft",
          "type": "address"
        },
        {
          "internalType": "contract SheBloomsToken",
          "name": "_token",
          "type": "address"
        }
      ],
      "stateMutability": "nonpayable",
      "type": "constructor"
    },
    {
      "anonymous": false,
      "inputs": [
        {
          "indexed": false,
          "internalType": "address",
          "name": "owner",
          "type": "address"
        },
        {
          "indexed": false,
          "internalType": "uint256",
          "name": "amount",
          "type": "uint256"
        }
      ],
      "name": "Claimed",
      "type": "event"
    },
    {
      "anonymous": false,
      "inputs": [
        {
          "indexed": false,
          "internalType": "address",
          "name": "owner",
          "type": "address"
        },
        {
          "indexed": false,
          "internalType": "uint256",
          "name": "tokenId",
          "type": "uint256"
        },
        {
          "indexed": false,
          "internalType": "uint256",
          "name": "value",
          "type": "uint256"
        }
      ],
      "name": "NFTStaked",
      "type": "event"
    },
    {
      "anonymous": false,
      "inputs": [
        {
          "indexed": false,
          "internalType": "address",
          "name": "owner",
          "type": "address"
        },
        {
          "indexed": false,
          "internalType": "uint256",
          "name": "tokenId",
          "type": "uint256"
        },
        {
          "indexed": false,
          "internalType": "uint256",
          "name": "value",
          "type": "uint256"
        }
      ],
      "name": "NFTUnstaked",
      "type": "event"
    },
    {
      "anonymous": false,
      "inputs": [
        {
          "indexed": true,
          "internalType": "address",
          "name": "previousOwner",
          "type": "address"
        },
        {
          "indexed": true,
          "internalType": "address",
          "name": "newOwner",
          "type": "address"
        }
      ],
      "name": "OwnershipTransferred",
      "type": "event"
    },
    {
      "inputs": [
        {
          "internalType": "address",
          "name": "account",
          "type": "address"
        }
      ],
      "name": "balanceOf",
      "outputs": [
        {
          "internalType": "uint256",
          "name": "",
          "type": "uint256"
        }
      ],
      "stateMutability": "view",
      "type": "function"
    },
    {
      "inputs": [
        {
          "internalType": "uint256[]",
          "name": "tokenIds",
          "type": "uint256[]"
        }
      ],
      "name": "claim",
      "outputs": [],
      "stateMutability": "nonpayable",
      "type": "function"
    },
    {
      "inputs": [
        {
          "internalType": "address",
          "name": "account",
          "type": "address"
        },
        {
          "internalType": "uint256[]",
          "name": "tokenIds",
          "type": "uint256[]"
        }
      ],
      "name": "claimForAddress",
      "outputs": [],
      "stateMutability": "nonpayable",
      "type": "function"
    },
    {
      "inputs": [
        {
          "internalType": "uint256[]",
          "name": "tokenIds",
          "type": "uint256[]"
        }
      ],
      "name": "earningInfo",
      "outputs": [
        {
          "internalType": "uint256",
          "name": "",
          "type": "uint256"
        }
      ],
      "stateMutability": "view",
      "type": "function"
    },
    {
      "inputs": [],
      "name": "earningRate",
      "outputs": [
        {
          "internalType": "uint256",
          "name": "",
          "type": "uint256"
        }
      ],
      "stateMutability": "view",
      "type": "function"
    },
    {
      "inputs": [
        {
          "internalType": "address",
          "name": "",
          "type": "address"
        },
        {
          "internalType": "address",
          "name": "from",
          "type": "address"
        },
        {
          "internalType": "uint256",
          "name": "",
          "type": "uint256"
        },
        {
          "internalType": "bytes",
          "name": "",
          "type": "bytes"
        }
      ],
      "name": "onERC721Received",
      "outputs": [
        {
          "internalType": "bytes4",
          "name": "",
          "type": "bytes4"
        }
      ],
      "stateMutability": "pure",
      "type": "function"
    },
    {
      "inputs": [],
      "name": "owner",
      "outputs": [
        {
          "internalType": "address",
          "name": "",
          "type": "address"
        }
      ],
      "stateMutability": "view",
      "type": "function"
    },
    {
      "inputs": [],
      "name": "paused",
      "outputs": [
        {
          "internalType": "bool",
          "name": "",
          "type": "bool"
        }
      ],
      "stateMutability": "view",
      "type": "function"
    },
    {
      "inputs": [],
      "name": "renounceOwnership",
      "outputs": [],
      "stateMutability": "nonpayable",
      "type": "function"
    },
    {
      "inputs": [
        {
          "internalType": "bool",
          "name": "_state",
          "type": "bool"
        }
      ],
      "name": "setPaused",
      "outputs": [],
      "stateMutability": "nonpayable",
      "type": "function"
    },
    {
      "inputs": [
        {
          "internalType": "uint256",
          "name": "_rate",
          "type": "uint256"
        }
      ],
      "name": "setRate",
      "outputs": [],
      "stateMutability": "nonpayable",
      "type": "function"
    },
    {
      "inputs": [
        {
          "internalType": "uint256[]",
          "name": "tokenIds",
          "type": "uint256[]"
        }
      ],
      "name": "stake",
      "outputs": [],
      "stateMutability": "nonpayable",
      "type": "function"
    },
    {
      "inputs": [
        {
          "internalType": "address",
          "name": "account",
          "type": "address"
        }
      ],
      "name": "tokensOfOwner",
      "outputs": [
        {
          "internalType": "uint256[]",
          "name": "ownerTokens",
          "type": "uint256[]"
        }
      ],
      "stateMutability": "view",
      "type": "function"
    },
    {
      "inputs": [],
      "name": "totalStaked",
      "outputs": [
        {
          "internalType": "uint256",
          "name": "",
          "type": "uint256"
        }
      ],
      "stateMutability": "view",
      "type": "function"
    },
    {
      "inputs": [
        {
          "internalType": "address",
          "name": "newOwner",
          "type": "address"
        }
      ],
      "name": "transferOwnership",
      "outputs": [],
      "stateMutability": "nonpayable",
      "type": "function"
    },
    {
      "inputs": [
        {
          "internalType": "uint256[]",
          "name": "tokenIds",
          "type": "uint256[]"
        }
      ],
      "name": "unstake",
      "outputs": [],
      "stateMutability": "nonpayable",
      "type": "function"
    },
    {
      "inputs": [
        {
          "internalType": "uint256",
          "name": "",
          "type": "uint256"
        }
      ],
      "name": "vault",
      "outputs": [
        {
          "internalType": "uint24",
          "name": "tokenId",
          "type": "uint24"
        },
        {
          "internalType": "uint48",
          "name": "timestamp",
          "type": "uint48"
        },
        {
          "internalType": "address",
          "name": "owner",
          "type": "address"
        }
      ],
      "stateMutability": "view",
      "type": "function"
    }
  ],
  "bytecode": "0x60806040526127106002556003805460ff191690553480156200002157600080fd5b5060405162001597380380620015978339810160408190526200004491620000f4565b6200004f336200008b565b60038054610100600160a81b0319166101006001600160a01b0394851602179055600480546001600160a01b0319169190921617905562000133565b600080546001600160a01b038381166001600160a01b0319831681178455604051919092169283917f8be0079c531659141344cd1fd0a4f28419497f9722a3daafe3b4186f6b6457e09190a35050565b6001600160a01b0381168114620000f157600080fd5b50565b600080604083850312156200010857600080fd5b82516200011581620000db565b60208401519092506200012881620000db565b809150509250929050565b61145480620001436000396000f3fe608060405234801561001057600080fd5b506004361061010b5760003560e01c806370a08231116100a25780638462151c116100715780638462151c146102725780638da5cb5b14610292578063c36be357146102ad578063e449f341146102c0578063f2fde38b146102d357600080fd5b806370a08231146101d6578063715018a6146101e9578063817b1cd2146101f157806381a36fb6146101fa57600080fd5b806334fcf437116100de57806334fcf437146101805780633562b086146101935780635c975abb146101a65780636ba4c138146101c357600080fd5b806308f09a89146101105780630fbf0a931461012c578063150b7a021461014157806316c38b3c1461016d575b600080fd5b61011960025481565b6040519081526020015b60405180910390f35b61013f61013a3660046110b7565b6102e6565b005b61015461014f36600461110e565b6105ea565b6040516001600160e01b03199091168152602001610123565b61013f61017b3660046111ad565b610660565b61013f61018e3660046111d6565b61069d565b6101196101a13660046110b7565b6106cc565b6003546101b39060ff1681565b6040519015158152602001610123565b61013f6101d13660046110b7565b6107d2565b6101196101e43660046111ef565b6107e3565b61013f6108d0565b61011960015481565b6102416102083660046111d6565b60056020526000908152604090205462ffffff8116906301000000810465ffffffffffff1690600160481b90046001600160a01b031683565b6040805162ffffff909416845265ffffffffffff90921660208401526001600160a01b031690820152606001610123565b6102856102803660046111ef565b610906565b604051610123919061120c565b6000546040516001600160a01b039091168152602001610123565b61013f6102bb366004611250565b610b0a565b61013f6102ce3660046110b7565b610b1c565b61013f6102e13660046111ef565b610b29565b60035460ff16156103375760405162461bcd60e51b815260206004820152601660248201527529ba30b5b4b7339034b9903737ba1030b1ba34bb329760511b60448201526064015b60405180910390fd5b6000828290506001600082825461034e91906112bb565b90915550600090505b828110156105e457838382818110610371576103716112d3565b6003546040516331a9108f60e11b81526020929092029390930135600482018190529450339261010090046001600160a01b03169150636352211e9060240160206040518083038186803b1580156103c857600080fd5b505afa1580156103dc573d6000803e3d6000fd5b505050506040513d601f19601f8201168201806040525081019061040091906112e9565b6001600160a01b0316146104265760405162461bcd60e51b815260040161032e90611306565b60008281526005602052604090205462ffffff16156104875760405162461bcd60e51b815260206004820152601a60248201527f54686973204e465420697320616c7265616479207374616b6564000000000000604482015260640161032e565b6003546040516323b872dd60e01b8152336004820152306024820152604481018490526101009091046001600160a01b0316906323b872dd90606401600060405180830381600087803b1580156104dd57600080fd5b505af11580156104f1573d6000803e3d6000fd5b50506040805133815260208101869052428183015290517f36b3725f1783bad4ff05b7f4c077c3aa68eeb23a4d054ba189db4d01ac278d399350908190036060019150a16040805160608101825262ffffff808516825265ffffffffffff4281166020808501918252338587019081526000898152600590925295902093518454915195516001600160a01b0316600160481b027fffffff0000000000000000000000000000000000000000ffffffffffffffffff9690931663010000000268ffffffffffffffffff199092169316929092179190911792909216919091179055806105dc81611347565b915050610357565b50505050565b60006001600160a01b0385161561064e5760405162461bcd60e51b815260206004820152602260248201527f43616e6e6f742073656e64206e66747320746f205661756c74206469726563746044820152616c7960f01b606482015260840161032e565b50630a85bd0160e11b95945050505050565b6000546001600160a01b0316331461068a5760405162461bcd60e51b815260040161032e90611362565b6003805460ff1916911515919091179055565b6000546001600160a01b031633146106c75760405162461bcd60e51b815260040161032e90611362565b600255565b6000808080805b858110156107bc578686828181106106ed576106ed6112d3565b602090810292909201356000818152600584526040908190208151606081018352905462ffffff811682526301000000810465ffffffffffff1695820195909552600160481b9094046001600160a01b0316908401819052909650331490506107685760405162461bcd60e51b815260040161032e90611306565b602081015165ffffffffffff169350620151806107858542611397565b60025461079291906113ae565b61079c91906113cd565b6107a690846112bb565b92505080806107b490611347565b9150506106d3565b506107c8600a826113cd565b9695505050505050565b6107df3383836000610bc4565b5050565b600080600090506000600360019054906101000a90046001600160a01b03166001600160a01b03166318160ddd6040518163ffffffff1660e01b815260040160206040518083038186803b15801561083a57600080fd5b505afa15801561084e573d6000803e3d6000fd5b505050506040513d601f19601f8201168201806040525081019061087291906113ef565b905060015b8181116108c7576000818152600560205260409020546001600160a01b03868116600160481b9092041614156108b5576108b26001846112bb565b92505b806108bf81611347565b915050610877565b50909392505050565b6000546001600160a01b031633146108fa5760405162461bcd60e51b815260040161032e90611362565b6109046000610e55565b565b60606000600360019054906101000a90046001600160a01b03166001600160a01b03166318160ddd6040518163ffffffff1660e01b815260040160206040518083038186803b15801561095857600080fd5b505afa15801561096c573d6000803e3d6000fd5b505050506040513d601f19601f8201168201806040525081019061099091906113ef565b905060008167ffffffffffffffff8111156109ad576109ad611408565b6040519080825280602002602001820160405280156109d6578160200160208202803683370190505b509050600060015b838111610a64576000818152600560205260409020546001600160a01b03878116600160481b909204161415610a5257600081815260056020526040902054835162ffffff90911690849084908110610a3957610a396112d3565b6020908102919091010152610a4f6001836112bb565b91505b80610a5c81611347565b9150506109de565b5060008167ffffffffffffffff811115610a8057610a80611408565b604051908082528060200260200182016040528015610aa9578160200160208202803683370190505b50905060005b82811015610b0057838181518110610ac957610ac96112d3565b6020026020010151828281518110610ae357610ae36112d3565b602090810291909101015280610af881611347565b915050610aaf565b5095945050505050565b610b178383836000610bc4565b505050565b6107df3383836001610bc4565b6000546001600160a01b03163314610b535760405162461bcd60e51b815260040161032e90611362565b6001600160a01b038116610bb85760405162461bcd60e51b815260206004820152602660248201527f4f776e61626c653a206e6577206f776e657220697320746865207a65726f206160448201526564647265737360d01b606482015260840161032e565b610bc181610e55565b50565b6000806000805b85811015610d7c57868682818110610be557610be56112d3565b602090810292909201356000818152600584526040908190208151606081018352905462ffffff8116825265ffffffffffff6301000000820416958201959095526001600160a01b03600160481b909504851691810182905291975090928b16149050610c645760405162461bcd60e51b815260040161032e90611306565b602081015165ffffffffffff16935062015180610c818542611397565b600254610c8e91906113ae565b610c9891906113cd565b610ca290846112bb565b925060405180606001604052808662ffffff1681526020014265ffffffffffff1681526020018a6001600160a01b03168152506005600087815260200190815260200160002060008201518160000160006101000a81548162ffffff021916908362ffffff16021790555060208201518160000160036101000a81548165ffffffffffff021916908365ffffffffffff16021790555060408201518160000160096101000a8154816001600160a01b0302191690836001600160a01b03160217905550905050508080610d7490611347565b915050610bcb565b508015610df957610d8e600a826113cd565b600480546040516340c10f1960e01b81526001600160a01b038b8116938201939093526024810184905292935016906340c10f1990604401600060405180830381600087803b158015610de057600080fd5b505af1158015610df4573d6000803e3d6000fd5b505050505b8315610e0a57610e0a878787610ea5565b604080516001600160a01b0389168152602081018390527fd8138f8a3f377c5259ca548e70e4c2de94f129f5a11036a15b69513cba2b426a910160405180910390a150505050505050565b600080546001600160a01b038381166001600160a01b0319831681178455604051919092169283917f8be0079c531659141344cd1fd0a4f28419497f9722a3daafe3b4186f6b6457e09190a35050565b60008282905060016000828254610ebc9190611397565b90915550600090505b8281101561106457838382818110610edf57610edf6112d3565b602090810292909201356000818152600584526040908190208151606081018352905462ffffff811682526301000000810465ffffffffffff1695820195909552600160481b9094046001600160a01b031690840181905290945033149050610f795760405162461bcd60e51b815260206004820152600c60248201526b3737ba1030b71037bbb732b960a11b604482015260640161032e565b60008381526005602090815260409182902080546001600160e81b031916905581516001600160a01b0389168152908101859052428183015290517fc486b9458a8637650d84d262414833a5a457bc91ae86b7da110386c8c3fa255b9181900360600190a16003546040516323b872dd60e01b81523060048201526001600160a01b03888116602483015260448201869052610100909204909116906323b872dd90606401600060405180830381600087803b15801561103857600080fd5b505af115801561104c573d6000803e3d6000fd5b5050505050808061105c90611347565b915050610ec5565b5050505050565b60008083601f84011261107d57600080fd5b50813567ffffffffffffffff81111561109557600080fd5b6020830191508360208260051b85010111156110b057600080fd5b9250929050565b600080602083850312156110ca57600080fd5b823567ffffffffffffffff8111156110e157600080fd5b6110ed8582860161106b565b90969095509350505050565b6001600160a01b0381168114610bc157600080fd5b60008060008060006080868803121561112657600080fd5b8535611131816110f9565b94506020860135611141816110f9565b935060408601359250606086013567ffffffffffffffff8082111561116557600080fd5b818801915088601f83011261117957600080fd5b81358181111561118857600080fd5b89602082850101111561119a57600080fd5b9699959850939650602001949392505050565b6000602082840312156111bf57600080fd5b813580151581146111cf57600080fd5b9392505050565b6000602082840312156111e857600080fd5b5035919050565b60006020828403121561120157600080fd5b81356111cf816110f9565b6020808252825182820181905260009190848201906040850190845b8181101561124457835183529284019291840191600101611228565b50909695505050505050565b60008060006040848603121561126557600080fd5b8335611270816110f9565b9250602084013567ffffffffffffffff81111561128c57600080fd5b6112988682870161106b565b9497909650939450505050565b634e487b7160e01b600052601160045260246000fd5b600082198211156112ce576112ce6112a5565b500190565b634e487b7160e01b600052603260045260246000fd5b6000602082840312156112fb57600080fd5b81516111cf816110f9565b60208082526021908201527f596f7520617265206e6f7420746865206f776e6572206f662074686973204e466040820152601560fa1b606082015260800190565b600060001982141561135b5761135b6112a5565b5060010190565b6020808252818101527f4f776e61626c653a2063616c6c6572206973206e6f7420746865206f776e6572604082015260600190565b6000828210156113a9576113a96112a5565b500390565b60008160001904831182151516156113c8576113c86112a5565b500290565b6000826113ea57634e487b7160e01b600052601260045260246000fd5b500490565b60006020828403121561140157600080fd5b5051919050565b634e487b7160e01b600052604160045260246000fdfea26469706673582212207d57739c44247dd03ab9bd0bca07355e3fbfc1c17f22f94c1599bb645c51ddac64736f6c63430008090033",
  "linkReferences": {},
  "deployedLinkReferences": {}
}