{
  "_format": "hh-sol-artifact-1",
  "contractName": "SheBloomsCollection",
  "sourceName": "contracts/SheBloomsCollection.sol",
  "abi": [
    {
      "inputs": [
        {
          "internalType": "string",
          "name": "_tokenName",
          "type": "string"
        },
        {
          "internalType": "string",
          "name": "_tokenSymbol",
          "type": "string"
        },
        {
          "internalType": "uint256",
          "name": "_cost",
          "type": "uint256"
        },
        {
          "internalType": "uint256",
          "name": "_maxSupply",
          "type": "uint256"
        },
        {
          "internalType": "uint256",
          "name": "_maxMintAmountPerTx",
          "type": "uint256"
        },
        {
          "internalType": "string",
          "name": "_hiddenMetadataUri",
          "type": "string"
        }
      ],
      "stateMutability": "nonpayable",
      "type": "constructor"
    },
    {
      "inputs": [],
      "name": "ApprovalCallerNotOwnerNorApproved",
      "type": "error"
    },
    {
      "inputs": [],
      "name": "ApprovalQueryForNonexistentToken",
      "type": "error"
    },
    {
      "inputs": [],
      "name": "ApprovalToCurrentOwner",
      "type": "error"
    },
    {
      "inputs": [],
      "name": "ApproveToCaller",
      "type": "error"
    },
    {
      "inputs": [],
      "name": "BalanceQueryForZeroAddress",
      "type": "error"
    },
    {
      "inputs": [],
      "name": "MintToZeroAddress",
      "type": "error"
    },
    {
      "inputs": [],
      "name": "MintZeroQuantity",
      "type": "error"
    },
    {
      "inputs": [],
      "name": "OwnerQueryForNonexistentToken",
      "type": "error"
    },
    {
      "inputs": [],
      "name": "TransferCallerNotOwnerNorApproved",
      "type": "error"
    },
    {
      "inputs": [],
      "name": "TransferFromIncorrectOwner",
      "type": "error"
    },
    {
      "inputs": [],
      "name": "TransferToNonERC721ReceiverImplementer",
      "type": "error"
    },
    {
      "inputs": [],
      "name": "TransferToZeroAddress",
      "type": "error"
    },
    {
      "anonymous": false,
      "inputs": [
        {
          "indexed": true,
          "internalType": "address",
          "name": "owner",
          "type": "address"
        },
        {
          "indexed": true,
          "internalType": "address",
          "name": "approved",
          "type": "address"
        },
        {
          "indexed": true,
          "internalType": "uint256",
          "name": "tokenId",
          "type": "uint256"
        }
      ],
      "name": "Approval",
      "type": "event"
    },
    {
      "anonymous": false,
      "inputs": [
        {
          "indexed": true,
          "internalType": "address",
          "name": "owner",
          "type": "address"
        },
        {
          "indexed": true,
          "internalType": "address",
          "name": "operator",
          "type": "address"
        },
        {
          "indexed": false,
          "internalType": "bool",
          "name": "approved",
          "type": "bool"
        }
      ],
      "name": "ApprovalForAll",
      "type": "event"
    },
    {
      "anonymous": false,
      "inputs": [
        {
          "indexed": true,
          "internalType": "address",
          "name": "previousOwner",
          "type": "address"
        },
        {
          "indexed": true,
          "internalType": "address",
          "name": "newOwner",
          "type": "address"
        }
      ],
      "name": "OwnershipTransferred",
      "type": "event"
    },
    {
      "anonymous": false,
      "inputs": [
        {
          "indexed": true,
          "internalType": "address",
          "name": "from",
          "type": "address"
        },
        {
          "indexed": true,
          "internalType": "address",
          "name": "to",
          "type": "address"
        },
        {
          "indexed": true,
          "internalType": "uint256",
          "name": "tokenId",
          "type": "uint256"
        }
      ],
      "name": "Transfer",
      "type": "event"
    },
    {
      "inputs": [
        {
          "internalType": "address",
          "name": "to",
          "type": "address"
        },
        {
          "internalType": "uint256",
          "name": "tokenId",
          "type": "uint256"
        }
      ],
      "name": "approve",
      "outputs": [],
      "stateMutability": "nonpayable",
      "type": "function"
    },
    {
      "inputs": [
        {
          "internalType": "address",
          "name": "owner",
          "type": "address"
        }
      ],
      "name": "balanceOf",
      "outputs": [
        {
          "internalType": "uint256",
          "name": "",
          "type": "uint256"
        }
      ],
      "stateMutability": "view",
      "type": "function"
    },
    {
      "inputs": [],
      "name": "cost",
      "outputs": [
        {
          "internalType": "uint256",
          "name": "",
          "type": "uint256"
        }
      ],
      "stateMutability": "view",
      "type": "function"
    },
    {
      "inputs": [
        {
          "internalType": "address",
          "name": "",
          "type": "address"
        }
      ],
      "name": "freeListClaimed",
      "outputs": [
        {
          "internalType": "bool",
          "name": "",
          "type": "bool"
        }
      ],
      "stateMutability": "view",
      "type": "function"
    },
    {
      "inputs": [],
      "name": "freeListMerkleRoot",
      "outputs": [
        {
          "internalType": "bytes32",
          "name": "",
          "type": "bytes32"
        }
      ],
      "stateMutability": "view",
      "type": "function"
    },
    {
      "inputs": [
        {
          "internalType": "uint256",
          "name": "_mintAmount",
          "type": "uint256"
        },
        {
          "internalType": "bytes32[]",
          "name": "_merkleProof",
          "type": "bytes32[]"
        }
      ],
      "name": "freeListMint",
      "outputs": [],
      "stateMutability": "payable",
      "type": "function"
    },
    {
      "inputs": [],
      "name": "freeListMintEnabled",
      "outputs": [
        {
          "internalType": "bool",
          "name": "",
          "type": "bool"
        }
      ],
      "stateMutability": "view",
      "type": "function"
    },
    {
      "inputs": [
        {
          "internalType": "uint256",
          "name": "tokenId",
          "type": "uint256"
        }
      ],
      "name": "getApproved",
      "outputs": [
        {
          "internalType": "address",
          "name": "",
          "type": "address"
        }
      ],
      "stateMutability": "view",
      "type": "function"
    },
    {
      "inputs": [
        {
          "internalType": "address",
          "name": "",
          "type": "address"
        }
      ],
      "name": "goldListClaimed",
      "outputs": [
        {
          "internalType": "bool",
          "name": "",
          "type": "bool"
        }
      ],
      "stateMutability": "view",
      "type": "function"
    },
    {
      "inputs": [],
      "name": "goldListMerkleRoot",
      "outputs": [
        {
          "internalType": "bytes32",
          "name": "",
          "type": "bytes32"
        }
      ],
      "stateMutability": "view",
      "type": "function"
    },
    {
      "inputs": [
        {
          "internalType": "uint256",
          "name": "_mintAmount",
          "type": "uint256"
        },
        {
          "internalType": "bytes32[]",
          "name": "_merkleProof",
          "type": "bytes32[]"
        }
      ],
      "name": "goldListMint",
      "outputs": [],
      "stateMutability": "payable",
      "type": "function"
    },
    {
      "inputs": [],
      "name": "goldListMintEnabled",
      "outputs": [
        {
          "internalType": "bool",
          "name": "",
          "type": "bool"
        }
      ],
      "stateMutability": "view",
      "type": "function"
    },
    {
      "inputs": [],
      "name": "hiddenMetadataUri",
      "outputs": [
        {
          "internalType": "string",
          "name": "",
          "type": "string"
        }
      ],
      "stateMutability": "view",
      "type": "function"
    },
    {
      "inputs": [
        {
          "internalType": "address",
          "name": "owner",
          "type": "address"
        },
        {
          "internalType": "address",
          "name": "operator",
          "type": "address"
        }
      ],
      "name": "isApprovedForAll",
      "outputs": [
        {
          "internalType": "bool",
          "name": "",
          "type": "bool"
        }
      ],
      "stateMutability": "view",
      "type": "function"
    },
    {
      "inputs": [],
      "name": "maxMintAmountPerTx",
      "outputs": [
        {
          "internalType": "uint256",
          "name": "",
          "type": "uint256"
        }
      ],
      "stateMutability": "view",
      "type": "function"
    },
    {
      "inputs": [],
      "name": "maxSupply",
      "outputs": [
        {
          "internalType": "uint256",
          "name": "",
          "type": "uint256"
        }
      ],
      "stateMutability": "view",
      "type": "function"
    },
    {
      "inputs": [
        {
          "internalType": "uint256",
          "name": "_mintAmount",
          "type": "uint256"
        }
      ],
      "name": "mint",
      "outputs": [],
      "stateMutability": "payable",
      "type": "function"
    },
    {
      "inputs": [
        {
          "internalType": "uint256",
          "name": "_mintAmount",
          "type": "uint256"
        },
        {
          "internalType": "address",
          "name": "_receiver",
          "type": "address"
        }
      ],
      "name": "mintForAddress",
      "outputs": [],
      "stateMutability": "nonpayable",
      "type": "function"
    },
    {
      "inputs": [],
      "name": "name",
      "outputs": [
        {
          "internalType": "string",
          "name": "",
          "type": "string"
        }
      ],
      "stateMutability": "view",
      "type": "function"
    },
    {
      "inputs": [],
      "name": "owner",
      "outputs": [
        {
          "internalType": "address",
          "name": "",
          "type": "address"
        }
      ],
      "stateMutability": "view",
      "type": "function"
    },
    {
      "inputs": [
        {
          "internalType": "uint256",
          "name": "tokenId",
          "type": "uint256"
        }
      ],
      "name": "ownerOf",
      "outputs": [
        {
          "internalType": "address",
          "name": "",
          "type": "address"
        }
      ],
      "stateMutability": "view",
      "type": "function"
    },
    {
      "inputs": [],
      "name": "paused",
      "outputs": [
        {
          "internalType": "bool",
          "name": "",
          "type": "bool"
        }
      ],
      "stateMutability": "view",
      "type": "function"
    },
    {
      "inputs": [],
      "name": "preSaleMintEnabled",
      "outputs": [
        {
          "internalType": "bool",
          "name": "",
          "type": "bool"
        }
      ],
      "stateMutability": "view",
      "type": "function"
    },
    {
      "inputs": [],
      "name": "renounceOwnership",
      "outputs": [],
      "stateMutability": "nonpayable",
      "type": "function"
    },
    {
      "inputs": [],
      "name": "revealed",
      "outputs": [
        {
          "internalType": "bool",
          "name": "",
          "type": "bool"
        }
      ],
      "stateMutability": "view",
      "type": "function"
    },
    {
      "inputs": [
        {
          "internalType": "address",
          "name": "from",
          "type": "address"
        },
        {
          "internalType": "address",
          "name": "to",
          "type": "address"
        },
        {
          "internalType": "uint256",
          "name": "tokenId",
          "type": "uint256"
        }
      ],
      "name": "safeTransferFrom",
      "outputs": [],
      "stateMutability": "nonpayable",
      "type": "function"
    },
    {
      "inputs": [
        {
          "internalType": "address",
          "name": "from",
          "type": "address"
        },
        {
          "internalType": "address",
          "name": "to",
          "type": "address"
        },
        {
          "internalType": "uint256",
          "name": "tokenId",
          "type": "uint256"
        },
        {
          "internalType": "bytes",
          "name": "_data",
          "type": "bytes"
        }
      ],
      "name": "safeTransferFrom",
      "outputs": [],
      "stateMutability": "nonpayable",
      "type": "function"
    },
    {
      "inputs": [
        {
          "internalType": "address",
          "name": "operator",
          "type": "address"
        },
        {
          "internalType": "bool",
          "name": "approved",
          "type": "bool"
        }
      ],
      "name": "setApprovalForAll",
      "outputs": [],
      "stateMutability": "nonpayable",
      "type": "function"
    },
    {
      "inputs": [
        {
          "internalType": "uint256",
          "name": "_cost",
          "type": "uint256"
        }
      ],
      "name": "setCost",
      "outputs": [],
      "stateMutability": "nonpayable",
      "type": "function"
    },
    {
      "inputs": [
        {
          "internalType": "bytes32",
          "name": "_merkleRoot",
          "type": "bytes32"
        }
      ],
      "name": "setFreeListMerkleRoot",
      "outputs": [],
      "stateMutability": "nonpayable",
      "type": "function"
    },
    {
      "inputs": [
        {
          "internalType": "bool",
          "name": "_state",
          "type": "bool"
        }
      ],
      "name": "setFreeListMintEnabled",
      "outputs": [],
      "stateMutability": "nonpayable",
      "type": "function"
    },
    {
      "inputs": [
        {
          "internalType": "bytes32",
          "name": "_merkleRoot",
          "type": "bytes32"
        }
      ],
      "name": "setGoldListMerkleRoot",
      "outputs": [],
      "stateMutability": "nonpayable",
      "type": "function"
    },
    {
      "inputs": [
        {
          "internalType": "bool",
          "name": "_state",
          "type": "bool"
        }
      ],
      "name": "setGoldListMintEnabled",
      "outputs": [],
      "stateMutability": "nonpayable",
      "type": "function"
    },
    {
      "inputs": [
        {
          "internalType": "string",
          "name": "_hiddenMetadataUri",
          "type": "string"
        }
      ],
      "name": "setHiddenMetadataUri",
      "outputs": [],
      "stateMutability": "nonpayable",
      "type": "function"
    },
    {
      "inputs": [
        {
          "internalType": "uint256",
          "name": "_maxMintAmountPerTx",
          "type": "uint256"
        }
      ],
      "name": "setMaxMintAmountPerTx",
      "outputs": [],
      "stateMutability": "nonpayable",
      "type": "function"
    },
    {
      "inputs": [
        {
          "internalType": "bool",
          "name": "_state",
          "type": "bool"
        }
      ],
      "name": "setPaused",
      "outputs": [],
      "stateMutability": "nonpayable",
      "type": "function"
    },
    {
      "inputs": [
        {
          "internalType": "bool",
          "name": "_state",
          "type": "bool"
        }
      ],
      "name": "setPreSaleMintEnabled",
      "outputs": [],
      "stateMutability": "nonpayable",
      "type": "function"
    },
    {
      "inputs": [
        {
          "internalType": "bool",
          "name": "_state",
          "type": "bool"
        }
      ],
      "name": "setRevealed",
      "outputs": [],
      "stateMutability": "nonpayable",
      "type": "function"
    },
    {
      "inputs": [
        {
          "internalType": "string",
          "name": "_uriPrefix",
          "type": "string"
        }
      ],
      "name": "setUriPrefix",
      "outputs": [],
      "stateMutability": "nonpayable",
      "type": "function"
    },
    {
      "inputs": [
        {
          "internalType": "string",
          "name": "_uriSuffix",
          "type": "string"
        }
      ],
      "name": "setUriSuffix",
      "outputs": [],
      "stateMutability": "nonpayable",
      "type": "function"
    },
    {
      "inputs": [
        {
          "internalType": "bytes4",
          "name": "interfaceId",
          "type": "bytes4"
        }
      ],
      "name": "supportsInterface",
      "outputs": [
        {
          "internalType": "bool",
          "name": "",
          "type": "bool"
        }
      ],
      "stateMutability": "view",
      "type": "function"
    },
    {
      "inputs": [],
      "name": "symbol",
      "outputs": [
        {
          "internalType": "string",
          "name": "",
          "type": "string"
        }
      ],
      "stateMutability": "view",
      "type": "function"
    },
    {
      "inputs": [
        {
          "internalType": "uint256",
          "name": "_tokenId",
          "type": "uint256"
        }
      ],
      "name": "tokenURI",
      "outputs": [
        {
          "internalType": "string",
          "name": "",
          "type": "string"
        }
      ],
      "stateMutability": "view",
      "type": "function"
    },
    {
      "inputs": [],
      "name": "totalSupply",
      "outputs": [
        {
          "internalType": "uint256",
          "name": "",
          "type": "uint256"
        }
      ],
      "stateMutability": "view",
      "type": "function"
    },
    {
      "inputs": [
        {
          "internalType": "address",
          "name": "from",
          "type": "address"
        },
        {
          "internalType": "address",
          "name": "to",
          "type": "address"
        },
        {
          "internalType": "uint256",
          "name": "tokenId",
          "type": "uint256"
        }
      ],
      "name": "transferFrom",
      "outputs": [],
      "stateMutability": "nonpayable",
      "type": "function"
    },
    {
      "inputs": [
        {
          "internalType": "address",
          "name": "newOwner",
          "type": "address"
        }
      ],
      "name": "transferOwnership",
      "outputs": [],
      "stateMutability": "nonpayable",
      "type": "function"
    },
    {
      "inputs": [],
      "name": "uriPrefix",
      "outputs": [
        {
          "internalType": "string",
          "name": "",
          "type": "string"
        }
      ],
      "stateMutability": "view",
      "type": "function"
    },
    {
      "inputs": [],
      "name": "uriSuffix",
      "outputs": [
        {
          "internalType": "string",
          "name": "",
          "type": "string"
        }
      ],
      "stateMutability": "view",
      "type": "function"
    },
    {
      "inputs": [
        {
          "internalType": "address",
          "name": "_owner",
          "type": "address"
        }
      ],
      "name": "walletOfOwner",
      "outputs": [
        {
          "internalType": "uint256[]",
          "name": "",
          "type": "uint256[]"
        }
      ],
      "stateMutability": "view",
      "type": "function"
    },
    {
      "inputs": [],
      "name": "withdraw",
      "outputs": [],
      "stateMutability": "nonpayable",
      "type": "function"
    }
  ],
  "bytecode": "0x60a06040819052600060808190526200001b91600e916200025f565b5060408051808201909152600580825264173539b7b760d91b60209092019182526200004a91600f916200025f565b506014805464ffffffffff191660011790553480156200006957600080fd5b5060405162002fde38038062002fde8339810160408190526200008c91620003d2565b855186908690620000a59060029060208501906200025f565b508051620000bb9060039060208401906200025f565b5050600160005550620000ce3362000105565b6001600955620000de8462000157565b6012839055620000ee82620001ab565b620000f981620001fb565b505050505050620004bc565b600880546001600160a01b038381166001600160a01b0319831681179093556040519116919082907f8be0079c531659141344cd1fd0a4f28419497f9722a3daafe3b4186f6b6457e090600090a35050565b6008546001600160a01b03163314620001a65760405162461bcd60e51b8152602060048201819052602482015260008051602062002fbe83398151915260448201526064015b60405180910390fd5b601155565b6008546001600160a01b03163314620001f65760405162461bcd60e51b8152602060048201819052602482015260008051602062002fbe83398151915260448201526064016200019d565b601355565b6008546001600160a01b03163314620002465760405162461bcd60e51b8152602060048201819052602482015260008051602062002fbe83398151915260448201526064016200019d565b80516200025b9060109060208401906200025f565b5050565b8280546200026d906200047f565b90600052602060002090601f016020900481019282620002915760008555620002dc565b82601f10620002ac57805160ff1916838001178555620002dc565b82800160010185558215620002dc579182015b82811115620002dc578251825591602001919060010190620002bf565b50620002ea929150620002ee565b5090565b5b80821115620002ea5760008155600101620002ef565b634e487b7160e01b600052604160045260246000fd5b600082601f8301126200032d57600080fd5b81516001600160401b03808211156200034a576200034a62000305565b604051601f8301601f19908116603f0116810190828211818310171562000375576200037562000305565b816040528381526020925086838588010111156200039257600080fd5b600091505b83821015620003b6578582018301518183018401529082019062000397565b83821115620003c85760008385830101525b9695505050505050565b60008060008060008060c08789031215620003ec57600080fd5b86516001600160401b03808211156200040457600080fd5b620004128a838b016200031b565b975060208901519150808211156200042957600080fd5b620004378a838b016200031b565b965060408901519550606089015194506080890151935060a08901519150808211156200046357600080fd5b506200047289828a016200031b565b9150509295509295509295565b600181811c908216806200049457607f821691505b60208210811415620004b657634e487b7160e01b600052602260045260246000fd5b50919050565b612af280620004cc6000396000f3fe6080604052600436106102c95760003560e01c8063715018a611610175578063c280c88e116100dc578063e872493711610095578063efbd73f41161006f578063efbd73f41461088e578063f2fde38b146108ae578063f4465dbd146108ce578063fb0220c2146108e157600080fd5b8063e872493714610805578063e985e9c514610825578063ef351f6c1461086e57600080fd5b8063c280c88e1461073f578063c28409441461075f578063c87b56dd1461077f578063d5abeb011461079f578063d612620b146107b5578063e0a80853146107e557600080fd5b806395d89b411161012e57806395d89b41146106a2578063a0712d68146106b7578063a22cb465146106ca578063a45ba8e7146106ea578063b071401b146106ff578063b88d4fde1461071f57600080fd5b8063715018a6146105f35780637d4fb819146106085780637ec4a6591461061e5780638da5cb5b1461063e57806394354fd01461065c5780639579e6881461067257600080fd5b80633ccfd60b1161023457806350ed063c116101ed5780635c975abb116101c75780635c975abb1461058457806362b99ad41461059e5780636352211e146105b357806370a08231146105d357600080fd5b806350ed063c1461053057806351830227146105505780635503a0e81461056f57600080fd5b80633ccfd60b1461047b57806342842e0e14610490578063438b6300146104b057806344a0d68a146104dd57806348161a69146104fd5780634fdd43cb1461051057600080fd5b806313faede61161028657806313faede6146103c057806316ba10e0146103e457806316c38b3c1461040457806318160ddd1461042457806323b872dd146104395780633bbc52e51461045957600080fd5b806301ffc9a7146102ce57806306fdde031461030357806307c3ddf814610325578063081812fc14610345578063095ea7b31461037d5780630de0da991461039f575b600080fd5b3480156102da57600080fd5b506102ee6102e93660046123a1565b6108f7565b60405190151581526020015b60405180910390f35b34801561030f57600080fd5b50610318610949565b6040516102fa9190612416565b34801561033157600080fd5b506014546102ee9062010000900460ff1681565b34801561035157600080fd5b50610365610360366004612429565b6109db565b6040516001600160a01b0390911681526020016102fa565b34801561038957600080fd5b5061039d61039836600461245e565b610a1f565b005b3480156103ab57600080fd5b506014546102ee906301000000900460ff1681565b3480156103cc57600080fd5b506103d660115481565b6040519081526020016102fa565b3480156103f057600080fd5b5061039d6103ff366004612513565b610aad565b34801561041057600080fd5b5061039d61041f36600461256b565b610af7565b34801561043057600080fd5b506103d6610b34565b34801561044557600080fd5b5061039d610454366004612586565b610b42565b34801561046557600080fd5b506014546102ee90640100000000900460ff1681565b34801561048757600080fd5b5061039d610b4d565b34801561049c57600080fd5b5061039d6104ab366004612586565b610c48565b3480156104bc57600080fd5b506104d06104cb3660046125c2565b610c63565b6040516102fa91906125dd565b3480156104e957600080fd5b5061039d6104f8366004612429565b610da3565b61039d61050b366004612621565b610dd2565b34801561051c57600080fd5b5061039d61052b366004612513565b611006565b34801561053c57600080fd5b5061039d61054b36600461256b565b611043565b34801561055c57600080fd5b506014546102ee90610100900460ff1681565b34801561057b57600080fd5b50610318611089565b34801561059057600080fd5b506014546102ee9060ff1681565b3480156105aa57600080fd5b50610318611117565b3480156105bf57600080fd5b506103656105ce366004612429565b611124565b3480156105df57600080fd5b506103d66105ee3660046125c2565b611136565b3480156105ff57600080fd5b5061039d611184565b34801561061457600080fd5b506103d6600a5481565b34801561062a57600080fd5b5061039d610639366004612513565b6111ba565b34801561064a57600080fd5b506008546001600160a01b0316610365565b34801561066857600080fd5b506103d660135481565b34801561067e57600080fd5b506102ee61068d3660046125c2565b600d6020526000908152604090205460ff1681565b3480156106ae57600080fd5b506103186111f7565b61039d6106c5366004612429565b611206565b3480156106d657600080fd5b5061039d6106e536600461269f565b6112ea565b3480156106f657600080fd5b50610318611380565b34801561070b57600080fd5b5061039d61071a366004612429565b61138d565b34801561072b57600080fd5b5061039d61073a3660046126d2565b6113bc565b34801561074b57600080fd5b5061039d61075a366004612429565b61140d565b34801561076b57600080fd5b5061039d61077a36600461256b565b61143c565b34801561078b57600080fd5b5061031861079a366004612429565b611484565b3480156107ab57600080fd5b506103d660125481565b3480156107c157600080fd5b506102ee6107d03660046125c2565b600b6020526000908152604090205460ff1681565b3480156107f157600080fd5b5061039d61080036600461256b565b6115f6565b34801561081157600080fd5b5061039d61082036600461256b565b61163a565b34801561083157600080fd5b506102ee61084036600461274d565b6001600160a01b03918216600090815260076020908152604080832093909416825291909152205460ff1690565b34801561087a57600080fd5b5061039d610889366004612429565b611684565b34801561089a57600080fd5b5061039d6108a9366004612777565b6116b3565b3480156108ba57600080fd5b5061039d6108c93660046125c2565b61174a565b61039d6108dc366004612621565b6117e5565b3480156108ed57600080fd5b506103d6600c5481565b60006001600160e01b031982166380ac58cd60e01b148061092857506001600160e01b03198216635b5e139f60e01b145b8061094357506301ffc9a760e01b6001600160e01b03198316145b92915050565b6060600280546109589061279a565b80601f01602080910402602001604051908101604052809291908181526020018280546109849061279a565b80156109d15780601f106109a6576101008083540402835291602001916109d1565b820191906000526020600020905b8154815290600101906020018083116109b457829003601f168201915b5050505050905090565b60006109e682611a53565b610a03576040516333d1c03960e21b815260040160405180910390fd5b506000908152600660205260409020546001600160a01b031690565b6000610a2a82611124565b9050806001600160a01b0316836001600160a01b03161415610a5f5760405163250fdee360e21b815260040160405180910390fd5b336001600160a01b03821614801590610a7f5750610a7d8133610840565b155b15610a9d576040516367d9dca160e11b815260040160405180910390fd5b610aa8838383611a8c565b505050565b6008546001600160a01b03163314610ae05760405162461bcd60e51b8152600401610ad7906127d5565b60405180910390fd5b8051610af390600f9060208401906122f2565b5050565b6008546001600160a01b03163314610b215760405162461bcd60e51b8152600401610ad7906127d5565b6014805460ff1916911515919091179055565b600154600054036000190190565b610aa8838383611ae8565b6008546001600160a01b03163314610b775760405162461bcd60e51b8152600401610ad7906127d5565b60026009541415610bca5760405162461bcd60e51b815260206004820152601f60248201527f5265656e7472616e637947756172643a207265656e7472616e742063616c6c006044820152606401610ad7565b60026009556000610be36008546001600160a01b031690565b6001600160a01b03164760405160006040518083038185875af1925050503d8060008114610c2d576040519150601f19603f3d011682016040523d82523d6000602084013e610c32565b606091505b5050905080610c4057600080fd5b506001600955565b610aa8838383604051806020016040528060008152506113bc565b60606000610c7083611136565b90506000816001600160401b03811115610c8c57610c8c612488565b604051908082528060200260200182016040528015610cb5578160200160208202803683370190505b50905060016000805b8482108015610cce575060005483105b15610d9857600083815260046020908152604091829020825160608101845290546001600160a01b0381168252600160a01b81046001600160401b031692820192909252600160e01b90910460ff16151591810182905290610d855780516001600160a01b031615610d3f57805191505b876001600160a01b0316826001600160a01b03161415610d855783858481518110610d6c57610d6c61280a565b602090810291909101015282610d8181612836565b9350505b83610d8f81612836565b94505050610cbe565b509195945050505050565b6008546001600160a01b03163314610dcd5760405162461bcd60e51b8152600401610ad7906127d5565b601155565b82600081118015610de557506013548111155b610e015760405162461bcd60e51b8152600401610ad790612851565b60125481610e0d610b34565b610e179190612886565b1115610e355760405162461bcd60e51b8152600401610ad79061289e565b60145462010000900460ff16610e8d5760405162461bcd60e51b815260206004820152601f60248201527f5468652046726565204d696e742073616c65206973206e6f74206f70656e21006044820152606401610ad7565b336000908152600d602052604090205460ff1615610f095760405162461bcd60e51b815260206004820152603360248201527f596f757220616464726573732068617320616c726561647920636c61696d6564604482015272206974732046726565204c697374204e46542160681b6064820152608401610ad7565b6040516bffffffffffffffffffffffff193360601b166020820152600090603401604051602081830303815290604052805190602001209050610f8384848080602002602001604051908101604052809392919081815260200183836020028082843760009201919091525050600c549150849050611cf9565b610fdb5760405162461bcd60e51b815260206004820152602360248201527f5468697320697320616e20696e76616c69642046726565204c6973742070726f6044820152626f662160e81b6064820152608401610ad7565b336000818152600d60205260409020805460ff19166001179055610fff9086611d0f565b5050505050565b6008546001600160a01b031633146110305760405162461bcd60e51b8152600401610ad7906127d5565b8051610af39060109060208401906122f2565b6008546001600160a01b0316331461106d5760405162461bcd60e51b8152600401610ad7906127d5565b60148054911515620100000262ff000019909216919091179055565b600f80546110969061279a565b80601f01602080910402602001604051908101604052809291908181526020018280546110c29061279a565b801561110f5780601f106110e45761010080835404028352916020019161110f565b820191906000526020600020905b8154815290600101906020018083116110f257829003601f168201915b505050505081565b600e80546110969061279a565b600061112f82611d29565b5192915050565b60006001600160a01b03821661115f576040516323d3ad8160e21b815260040160405180910390fd5b506001600160a01b03166000908152600560205260409020546001600160401b031690565b6008546001600160a01b031633146111ae5760405162461bcd60e51b8152600401610ad7906127d5565b6111b86000611e50565b565b6008546001600160a01b031633146111e45760405162461bcd60e51b8152600401610ad7906127d5565b8051610af390600e9060208401906122f2565b6060600380546109589061279a565b8060008111801561121957506013548111155b6112355760405162461bcd60e51b8152600401610ad790612851565b60125481611241610b34565b61124b9190612886565b11156112695760405162461bcd60e51b8152600401610ad79061289e565b818060115461127891906128d5565b3410156112975760405162461bcd60e51b8152600401610ad7906128f4565b60145460ff16156112e05760405162461bcd60e51b81526020600482015260136024820152725468652073616c65206973207061757365642160681b6044820152606401610ad7565b610aa83384611d0f565b6001600160a01b0382163314156113145760405163b06307db60e01b815260040160405180910390fd5b3360008181526007602090815260408083206001600160a01b03871680855290835292819020805460ff191686151590811790915590519081529192917f17307eab39ab6107e8899845ad3d59bd9653f200f220920489ca2b5937696c31910160405180910390a35050565b601080546110969061279a565b6008546001600160a01b031633146113b75760405162461bcd60e51b8152600401610ad7906127d5565b601355565b6113c7848484611ae8565b6001600160a01b0383163b151580156113e957506113e784848484611ea2565b155b15611407576040516368d2bf6b60e11b815260040160405180910390fd5b50505050565b6008546001600160a01b031633146114375760405162461bcd60e51b8152600401610ad7906127d5565b600c55565b6008546001600160a01b031633146114665760405162461bcd60e51b8152600401610ad7906127d5565b6014805491151563010000000263ff00000019909216919091179055565b606061148f82611a53565b6114f65760405162461bcd60e51b815260206004820152603260248201527f4552433732314d657461646174613a2074686520746f6b656e207370656369666044820152711a595908191bd95cc81b9bdd08195e1a5cdd60721b6064820152608401610ad7565b601454610100900460ff1661159757601080546115129061279a565b80601f016020809104026020016040519081016040528092919081815260200182805461153e9061279a565b801561158b5780601f106115605761010080835404028352916020019161158b565b820191906000526020600020905b81548152906001019060200180831161156e57829003601f168201915b50505050509050919050565b60006115a1611f9a565b905060008151116115c157604051806020016040528060008152506115ef565b806115cb84611fa9565b600f6040516020016115df93929190612949565b6040516020818303038152906040525b9392505050565b6008546001600160a01b031633146116205760405162461bcd60e51b8152600401610ad7906127d5565b601480549115156101000261ff0019909216919091179055565b6008546001600160a01b031633146116645760405162461bcd60e51b8152600401610ad7906127d5565b601480549115156401000000000264ff0000000019909216919091179055565b6008546001600160a01b031633146116ae5760405162461bcd60e51b8152600401610ad7906127d5565b600a55565b816000811180156116c657506013548111155b6116e25760405162461bcd60e51b8152600401610ad790612851565b601254816116ee610b34565b6116f89190612886565b11156117165760405162461bcd60e51b8152600401610ad79061289e565b6008546001600160a01b031633146117405760405162461bcd60e51b8152600401610ad7906127d5565b610aa88284611d0f565b6008546001600160a01b031633146117745760405162461bcd60e51b8152600401610ad7906127d5565b6001600160a01b0381166117d95760405162461bcd60e51b815260206004820152602660248201527f4f776e61626c653a206e6577206f776e657220697320746865207a65726f206160448201526564647265737360d01b6064820152608401610ad7565b6117e281611e50565b50565b826000811180156117f857506013548111155b6118145760405162461bcd60e51b8152600401610ad790612851565b60125481611820610b34565b61182a9190612886565b11156118485760405162461bcd60e51b8152600401610ad79061289e565b838060115461185791906128d5565b3410156118765760405162461bcd60e51b8152600401610ad7906128f4565b6014546301000000900460ff166118d95760405162461bcd60e51b815260206004820152602160248201527f54686520476f6c64204c6973742073616c65206973206e6f74206163746976656044820152602160f81b6064820152608401610ad7565b336000908152600b602052604090205460ff16156119555760405162461bcd60e51b815260206004820152603360248201527f596f757220616464726573732068617320616c726561647920636c61696d65646044820152722069747320476f6c64204c697374204e46542160681b6064820152608401610ad7565b6040516bffffffffffffffffffffffff193360601b1660208201526000906034016040516020818303038152906040528051906020012090506119cf85858080602002602001604051908101604052809392919081815260200183836020028082843760009201919091525050600a549150849050611cf9565b611a275760405162461bcd60e51b815260206004820152602360248201527f5468697320697320616e20696e76616c696420476f6c64204c6973742070726f6044820152626f662160e81b6064820152608401610ad7565b336000818152600b60205260409020805460ff19166001179055611a4b9087611d0f565b505050505050565b600081600111158015611a67575060005482105b8015610943575050600090815260046020526040902054600160e01b900460ff161590565b60008281526006602052604080822080546001600160a01b0319166001600160a01b0387811691821790925591518593918516917f8c5be1e5ebec7d5bd14f71427d1e84f3dd0314c0f7b2291e5b200ac8c7c3b92591a4505050565b6000611af382611d29565b80519091506000906001600160a01b0316336001600160a01b03161480611b2157508151611b219033610840565b80611b3c575033611b31846109db565b6001600160a01b0316145b905080611b5c57604051632ce44b5f60e11b815260040160405180910390fd5b846001600160a01b031682600001516001600160a01b031614611b915760405162a1148160e81b815260040160405180910390fd5b6001600160a01b038416611bb857604051633a954ecd60e21b815260040160405180910390fd5b611bc86000848460000151611a8c565b6001600160a01b038581166000908152600560209081526040808320805467ffffffffffffffff198082166001600160401b0392831660001901831617909255898616808652838620805493841693831660019081018416949094179055898652600490945282852080546001600160e01b031916909417600160a01b429092169190910217909255908601808352912054909116611cb257600054811015611cb257825160008281526004602090815260409091208054918601516001600160401b0316600160a01b026001600160e01b03199092166001600160a01b03909316929092171790555b5082846001600160a01b0316866001600160a01b03167fddf252ad1be2c89b69c2b068fc378daa952ba7f163c4a11628f55a4df523b3ef60405160405180910390a4610fff565b600082611d0685846120a6565b14949350505050565b610af382826040518060200160405280600081525061211a565b60408051606081018252600080825260208201819052918101919091528180600111158015611d59575060005481105b15611e3757600081815260046020908152604091829020825160608101845290546001600160a01b0381168252600160a01b81046001600160401b031692820192909252600160e01b90910460ff16151591810182905290611e355780516001600160a01b031615611dcc579392505050565b5060001901600081815260046020908152604091829020825160608101845290546001600160a01b038116808352600160a01b82046001600160401b031693830193909352600160e01b900460ff1615159281019290925215611e30579392505050565b611dcc565b505b604051636f96cda160e11b815260040160405180910390fd5b600880546001600160a01b038381166001600160a01b0319831681179093556040519116919082907f8be0079c531659141344cd1fd0a4f28419497f9722a3daafe3b4186f6b6457e090600090a35050565b604051630a85bd0160e11b81526000906001600160a01b0385169063150b7a0290611ed7903390899088908890600401612a0d565b602060405180830381600087803b158015611ef157600080fd5b505af1925050508015611f21575060408051601f3d908101601f19168201909252611f1e91810190612a4a565b60015b611f7c573d808015611f4f576040519150601f19603f3d011682016040523d82523d6000602084013e611f54565b606091505b508051611f74576040516368d2bf6b60e11b815260040160405180910390fd5b805181602001fd5b6001600160e01b031916630a85bd0160e11b1490505b949350505050565b6060600e80546109589061279a565b606081611fcd5750506040805180820190915260018152600360fc1b602082015290565b8160005b8115611ff75780611fe181612836565b9150611ff09050600a83612a7d565b9150611fd1565b6000816001600160401b0381111561201157612011612488565b6040519080825280601f01601f19166020018201604052801561203b576020820181803683370190505b5090505b8415611f9257612050600183612a91565b915061205d600a86612aa8565b612068906030612886565b60f81b81838151811061207d5761207d61280a565b60200101906001600160f81b031916908160001a90535061209f600a86612a7d565b945061203f565b600081815b84518110156121125760008582815181106120c8576120c861280a565b602002602001015190508083116120ee57600083815260208290526040902092506120ff565b600081815260208490526040902092505b508061210a81612836565b9150506120ab565b509392505050565b610aa883838360016000546001600160a01b03851661214b57604051622e076360e81b815260040160405180910390fd5b836121695760405163b562e8dd60e01b815260040160405180910390fd5b6001600160a01b038516600081815260056020908152604080832080546fffffffffffffffffffffffffffffffff1981166001600160401b038083168c0181169182176801000000000000000067ffffffffffffffff1990941690921783900481168c01811690920217909155858452600490925290912080546001600160e01b031916909217600160a01b42909216919091021790558080850183801561221a57506001600160a01b0387163b15155b156122a3575b60405182906001600160a01b038916906000907fddf252ad1be2c89b69c2b068fc378daa952ba7f163c4a11628f55a4df523b3ef908290a461226b6000888480600101955088611ea2565b612288576040516368d2bf6b60e11b815260040160405180910390fd5b8082141561222057826000541461229e57600080fd5b6122e9565b5b6040516001830192906001600160a01b038916906000907fddf252ad1be2c89b69c2b068fc378daa952ba7f163c4a11628f55a4df523b3ef908290a4808214156122a4575b50600055610fff565b8280546122fe9061279a565b90600052602060002090601f0160209004810192826123205760008555612366565b82601f1061233957805160ff1916838001178555612366565b82800160010185558215612366579182015b8281111561236657825182559160200191906001019061234b565b50612372929150612376565b5090565b5b808211156123725760008155600101612377565b6001600160e01b0319811681146117e257600080fd5b6000602082840312156123b357600080fd5b81356115ef8161238b565b60005b838110156123d95781810151838201526020016123c1565b838111156114075750506000910152565b600081518084526124028160208601602086016123be565b601f01601f19169290920160200192915050565b6020815260006115ef60208301846123ea565b60006020828403121561243b57600080fd5b5035919050565b80356001600160a01b038116811461245957600080fd5b919050565b6000806040838503121561247157600080fd5b61247a83612442565b946020939093013593505050565b634e487b7160e01b600052604160045260246000fd5b60006001600160401b03808411156124b8576124b8612488565b604051601f8501601f19908116603f011681019082821181831017156124e0576124e0612488565b816040528093508581528686860111156124f957600080fd5b858560208301376000602087830101525050509392505050565b60006020828403121561252557600080fd5b81356001600160401b0381111561253b57600080fd5b8201601f8101841361254c57600080fd5b611f928482356020840161249e565b8035801515811461245957600080fd5b60006020828403121561257d57600080fd5b6115ef8261255b565b60008060006060848603121561259b57600080fd5b6125a484612442565b92506125b260208501612442565b9150604084013590509250925092565b6000602082840312156125d457600080fd5b6115ef82612442565b6020808252825182820181905260009190848201906040850190845b81811015612615578351835292840192918401916001016125f9565b50909695505050505050565b60008060006040848603121561263657600080fd5b8335925060208401356001600160401b038082111561265457600080fd5b818601915086601f83011261266857600080fd5b81358181111561267757600080fd5b8760208260051b850101111561268c57600080fd5b6020830194508093505050509250925092565b600080604083850312156126b257600080fd5b6126bb83612442565b91506126c96020840161255b565b90509250929050565b600080600080608085870312156126e857600080fd5b6126f185612442565b93506126ff60208601612442565b92506040850135915060608501356001600160401b0381111561272157600080fd5b8501601f8101871361273257600080fd5b6127418782356020840161249e565b91505092959194509250565b6000806040838503121561276057600080fd5b61276983612442565b91506126c960208401612442565b6000806040838503121561278a57600080fd5b823591506126c960208401612442565b600181811c908216806127ae57607f821691505b602082108114156127cf57634e487b7160e01b600052602260045260246000fd5b50919050565b6020808252818101527f4f776e61626c653a2063616c6c6572206973206e6f7420746865206f776e6572604082015260600190565b634e487b7160e01b600052603260045260246000fd5b634e487b7160e01b600052601160045260246000fd5b600060001982141561284a5761284a612820565b5060010190565b6020808252818101527f596f752063616e206e6f74206d696e742074686973206d616e79206974656d73604082015260600190565b6000821982111561289957612899612820565b500190565b6020808252601c908201527f4d617820737570706c7920686173206265656e20657863656564656400000000604082015260600190565b60008160001904831182151516156128ef576128ef612820565b500290565b60208082526035908201527f596f7520646964206e6f742073656e6420656e6f7567682045544820746f20636040820152746f6d706c657465207468697320707572636861736560581b606082015260800190565b60008451602061295c8285838a016123be565b85519184019161296f8184848a016123be565b8554920191600090600181811c908083168061298c57607f831692505b8583108114156129aa57634e487b7160e01b85526022600452602485fd5b8080156129be57600181146129cf576129fc565b60ff198516885283880195506129fc565b60008b81526020902060005b858110156129f45781548a8201529084019088016129db565b505083880195505b50939b9a5050505050505050505050565b6001600160a01b0385811682528416602082015260408101839052608060608201819052600090612a40908301846123ea565b9695505050505050565b600060208284031215612a5c57600080fd5b81516115ef8161238b565b634e487b7160e01b600052601260045260246000fd5b600082612a8c57612a8c612a67565b500490565b600082821015612aa357612aa3612820565b500390565b600082612ab757612ab7612a67565b50069056fea26469706673582212207e74683b4e47ca71910584436b0803df3e5e1abd423e26465e7d907c3fcb8a7b64736f6c634300080900334f776e61626c653a2063616c6c6572206973206e6f7420746865206f776e6572",
  "linkReferences": {},
  "deployedLinkReferences": {}
}