{
  "_format": "hh-sol-artifact-1",
  "contractName": "SheBloomsCollection",
  "sourceName": "contracts/SheBloomsCollection.sol",
  "abi": [
    {
      "inputs": [
        {
          "internalType": "string",
          "name": "_tokenName",
          "type": "string"
        },
        {
          "internalType": "string",
          "name": "_tokenSymbol",
          "type": "string"
        },
        {
          "internalType": "uint256",
          "name": "_cost",
          "type": "uint256"
        },
        {
          "internalType": "uint256",
          "name": "_maxSupply",
          "type": "uint256"
        },
        {
          "internalType": "uint256",
          "name": "_maxMintAmountPerTx",
          "type": "uint256"
        },
        {
          "internalType": "string",
          "name": "_hiddenMetadataUri",
          "type": "string"
        }
      ],
      "stateMutability": "nonpayable",
      "type": "constructor"
    },
    {
      "inputs": [],
      "name": "ApprovalCallerNotOwnerNorApproved",
      "type": "error"
    },
    {
      "inputs": [],
      "name": "ApprovalQueryForNonexistentToken",
      "type": "error"
    },
    {
      "inputs": [],
      "name": "ApprovalToCurrentOwner",
      "type": "error"
    },
    {
      "inputs": [],
      "name": "ApproveToCaller",
      "type": "error"
    },
    {
      "inputs": [],
      "name": "BalanceQueryForZeroAddress",
      "type": "error"
    },
    {
      "inputs": [],
      "name": "MintToZeroAddress",
      "type": "error"
    },
    {
      "inputs": [],
      "name": "MintZeroQuantity",
      "type": "error"
    },
    {
      "inputs": [],
      "name": "OwnerQueryForNonexistentToken",
      "type": "error"
    },
    {
      "inputs": [],
      "name": "TransferCallerNotOwnerNorApproved",
      "type": "error"
    },
    {
      "inputs": [],
      "name": "TransferFromIncorrectOwner",
      "type": "error"
    },
    {
      "inputs": [],
      "name": "TransferToNonERC721ReceiverImplementer",
      "type": "error"
    },
    {
      "inputs": [],
      "name": "TransferToZeroAddress",
      "type": "error"
    },
    {
      "anonymous": false,
      "inputs": [
        {
          "indexed": true,
          "internalType": "address",
          "name": "owner",
          "type": "address"
        },
        {
          "indexed": true,
          "internalType": "address",
          "name": "approved",
          "type": "address"
        },
        {
          "indexed": true,
          "internalType": "uint256",
          "name": "tokenId",
          "type": "uint256"
        }
      ],
      "name": "Approval",
      "type": "event"
    },
    {
      "anonymous": false,
      "inputs": [
        {
          "indexed": true,
          "internalType": "address",
          "name": "owner",
          "type": "address"
        },
        {
          "indexed": true,
          "internalType": "address",
          "name": "operator",
          "type": "address"
        },
        {
          "indexed": false,
          "internalType": "bool",
          "name": "approved",
          "type": "bool"
        }
      ],
      "name": "ApprovalForAll",
      "type": "event"
    },
    {
      "anonymous": false,
      "inputs": [
        {
          "indexed": true,
          "internalType": "address",
          "name": "previousOwner",
          "type": "address"
        },
        {
          "indexed": true,
          "internalType": "address",
          "name": "newOwner",
          "type": "address"
        }
      ],
      "name": "OwnershipTransferred",
      "type": "event"
    },
    {
      "anonymous": false,
      "inputs": [
        {
          "indexed": true,
          "internalType": "address",
          "name": "from",
          "type": "address"
        },
        {
          "indexed": true,
          "internalType": "address",
          "name": "to",
          "type": "address"
        },
        {
          "indexed": true,
          "internalType": "uint256",
          "name": "tokenId",
          "type": "uint256"
        }
      ],
      "name": "Transfer",
      "type": "event"
    },
    {
      "inputs": [
        {
          "internalType": "address",
          "name": "to",
          "type": "address"
        },
        {
          "internalType": "uint256",
          "name": "tokenId",
          "type": "uint256"
        }
      ],
      "name": "approve",
      "outputs": [],
      "stateMutability": "nonpayable",
      "type": "function"
    },
    {
      "inputs": [
        {
          "internalType": "address",
          "name": "owner",
          "type": "address"
        }
      ],
      "name": "balanceOf",
      "outputs": [
        {
          "internalType": "uint256",
          "name": "",
          "type": "uint256"
        }
      ],
      "stateMutability": "view",
      "type": "function"
    },
    {
      "inputs": [],
      "name": "cost",
      "outputs": [
        {
          "internalType": "uint256",
          "name": "",
          "type": "uint256"
        }
      ],
      "stateMutability": "view",
      "type": "function"
    },
    {
      "inputs": [
        {
          "internalType": "uint256",
          "name": "tokenId",
          "type": "uint256"
        }
      ],
      "name": "getApproved",
      "outputs": [
        {
          "internalType": "address",
          "name": "",
          "type": "address"
        }
      ],
      "stateMutability": "view",
      "type": "function"
    },
    {
      "inputs": [],
      "name": "hiddenMetadataUri",
      "outputs": [
        {
          "internalType": "string",
          "name": "",
          "type": "string"
        }
      ],
      "stateMutability": "view",
      "type": "function"
    },
    {
      "inputs": [
        {
          "internalType": "address",
          "name": "owner",
          "type": "address"
        },
        {
          "internalType": "address",
          "name": "operator",
          "type": "address"
        }
      ],
      "name": "isApprovedForAll",
      "outputs": [
        {
          "internalType": "bool",
          "name": "",
          "type": "bool"
        }
      ],
      "stateMutability": "view",
      "type": "function"
    },
    {
      "inputs": [],
      "name": "maxMintAmountPerTx",
      "outputs": [
        {
          "internalType": "uint256",
          "name": "",
          "type": "uint256"
        }
      ],
      "stateMutability": "view",
      "type": "function"
    },
    {
      "inputs": [],
      "name": "maxSupply",
      "outputs": [
        {
          "internalType": "uint256",
          "name": "",
          "type": "uint256"
        }
      ],
      "stateMutability": "view",
      "type": "function"
    },
    {
      "inputs": [],
      "name": "merkleRoot",
      "outputs": [
        {
          "internalType": "bytes32",
          "name": "",
          "type": "bytes32"
        }
      ],
      "stateMutability": "view",
      "type": "function"
    },
    {
      "inputs": [
        {
          "internalType": "uint256",
          "name": "_mintAmount",
          "type": "uint256"
        }
      ],
      "name": "mint",
      "outputs": [],
      "stateMutability": "payable",
      "type": "function"
    },
    {
      "inputs": [
        {
          "internalType": "uint256",
          "name": "_mintAmount",
          "type": "uint256"
        },
        {
          "internalType": "address",
          "name": "_receiver",
          "type": "address"
        }
      ],
      "name": "mintForAddress",
      "outputs": [],
      "stateMutability": "nonpayable",
      "type": "function"
    },
    {
      "inputs": [],
      "name": "name",
      "outputs": [
        {
          "internalType": "string",
          "name": "",
          "type": "string"
        }
      ],
      "stateMutability": "view",
      "type": "function"
    },
    {
      "inputs": [],
      "name": "owner",
      "outputs": [
        {
          "internalType": "address",
          "name": "",
          "type": "address"
        }
      ],
      "stateMutability": "view",
      "type": "function"
    },
    {
      "inputs": [
        {
          "internalType": "uint256",
          "name": "tokenId",
          "type": "uint256"
        }
      ],
      "name": "ownerOf",
      "outputs": [
        {
          "internalType": "address",
          "name": "",
          "type": "address"
        }
      ],
      "stateMutability": "view",
      "type": "function"
    },
    {
      "inputs": [],
      "name": "paused",
      "outputs": [
        {
          "internalType": "bool",
          "name": "",
          "type": "bool"
        }
      ],
      "stateMutability": "view",
      "type": "function"
    },
    {
      "inputs": [],
      "name": "renounceOwnership",
      "outputs": [],
      "stateMutability": "nonpayable",
      "type": "function"
    },
    {
      "inputs": [],
      "name": "revealed",
      "outputs": [
        {
          "internalType": "bool",
          "name": "",
          "type": "bool"
        }
      ],
      "stateMutability": "view",
      "type": "function"
    },
    {
      "inputs": [
        {
          "internalType": "address",
          "name": "from",
          "type": "address"
        },
        {
          "internalType": "address",
          "name": "to",
          "type": "address"
        },
        {
          "internalType": "uint256",
          "name": "tokenId",
          "type": "uint256"
        }
      ],
      "name": "safeTransferFrom",
      "outputs": [],
      "stateMutability": "nonpayable",
      "type": "function"
    },
    {
      "inputs": [
        {
          "internalType": "address",
          "name": "from",
          "type": "address"
        },
        {
          "internalType": "address",
          "name": "to",
          "type": "address"
        },
        {
          "internalType": "uint256",
          "name": "tokenId",
          "type": "uint256"
        },
        {
          "internalType": "bytes",
          "name": "_data",
          "type": "bytes"
        }
      ],
      "name": "safeTransferFrom",
      "outputs": [],
      "stateMutability": "nonpayable",
      "type": "function"
    },
    {
      "inputs": [
        {
          "internalType": "address",
          "name": "operator",
          "type": "address"
        },
        {
          "internalType": "bool",
          "name": "approved",
          "type": "bool"
        }
      ],
      "name": "setApprovalForAll",
      "outputs": [],
      "stateMutability": "nonpayable",
      "type": "function"
    },
    {
      "inputs": [
        {
          "internalType": "uint256",
          "name": "_cost",
          "type": "uint256"
        }
      ],
      "name": "setCost",
      "outputs": [],
      "stateMutability": "nonpayable",
      "type": "function"
    },
    {
      "inputs": [
        {
          "internalType": "string",
          "name": "_hiddenMetadataUri",
          "type": "string"
        }
      ],
      "name": "setHiddenMetadataUri",
      "outputs": [],
      "stateMutability": "nonpayable",
      "type": "function"
    },
    {
      "inputs": [
        {
          "internalType": "uint256",
          "name": "_maxMintAmountPerTx",
          "type": "uint256"
        }
      ],
      "name": "setMaxMintAmountPerTx",
      "outputs": [],
      "stateMutability": "nonpayable",
      "type": "function"
    },
    {
      "inputs": [
        {
          "internalType": "bytes32",
          "name": "_merkleRoot",
          "type": "bytes32"
        }
      ],
      "name": "setMerkleRoot",
      "outputs": [],
      "stateMutability": "nonpayable",
      "type": "function"
    },
    {
      "inputs": [
        {
          "internalType": "bool",
          "name": "_state",
          "type": "bool"
        }
      ],
      "name": "setPaused",
      "outputs": [],
      "stateMutability": "nonpayable",
      "type": "function"
    },
    {
      "inputs": [
        {
          "internalType": "bool",
          "name": "_state",
          "type": "bool"
        }
      ],
      "name": "setRevealed",
      "outputs": [],
      "stateMutability": "nonpayable",
      "type": "function"
    },
    {
      "inputs": [
        {
          "internalType": "string",
          "name": "_uriPrefix",
          "type": "string"
        }
      ],
      "name": "setUriPrefix",
      "outputs": [],
      "stateMutability": "nonpayable",
      "type": "function"
    },
    {
      "inputs": [
        {
          "internalType": "string",
          "name": "_uriSuffix",
          "type": "string"
        }
      ],
      "name": "setUriSuffix",
      "outputs": [],
      "stateMutability": "nonpayable",
      "type": "function"
    },
    {
      "inputs": [
        {
          "internalType": "bool",
          "name": "_state",
          "type": "bool"
        }
      ],
      "name": "setWhitelistMintEnabled",
      "outputs": [],
      "stateMutability": "nonpayable",
      "type": "function"
    },
    {
      "inputs": [
        {
          "internalType": "bytes4",
          "name": "interfaceId",
          "type": "bytes4"
        }
      ],
      "name": "supportsInterface",
      "outputs": [
        {
          "internalType": "bool",
          "name": "",
          "type": "bool"
        }
      ],
      "stateMutability": "view",
      "type": "function"
    },
    {
      "inputs": [],
      "name": "symbol",
      "outputs": [
        {
          "internalType": "string",
          "name": "",
          "type": "string"
        }
      ],
      "stateMutability": "view",
      "type": "function"
    },
    {
      "inputs": [
        {
          "internalType": "uint256",
          "name": "_tokenId",
          "type": "uint256"
        }
      ],
      "name": "tokenURI",
      "outputs": [
        {
          "internalType": "string",
          "name": "",
          "type": "string"
        }
      ],
      "stateMutability": "view",
      "type": "function"
    },
    {
      "inputs": [],
      "name": "totalSupply",
      "outputs": [
        {
          "internalType": "uint256",
          "name": "",
          "type": "uint256"
        }
      ],
      "stateMutability": "view",
      "type": "function"
    },
    {
      "inputs": [
        {
          "internalType": "address",
          "name": "from",
          "type": "address"
        },
        {
          "internalType": "address",
          "name": "to",
          "type": "address"
        },
        {
          "internalType": "uint256",
          "name": "tokenId",
          "type": "uint256"
        }
      ],
      "name": "transferFrom",
      "outputs": [],
      "stateMutability": "nonpayable",
      "type": "function"
    },
    {
      "inputs": [
        {
          "internalType": "address",
          "name": "newOwner",
          "type": "address"
        }
      ],
      "name": "transferOwnership",
      "outputs": [],
      "stateMutability": "nonpayable",
      "type": "function"
    },
    {
      "inputs": [],
      "name": "uriPrefix",
      "outputs": [
        {
          "internalType": "string",
          "name": "",
          "type": "string"
        }
      ],
      "stateMutability": "view",
      "type": "function"
    },
    {
      "inputs": [],
      "name": "uriSuffix",
      "outputs": [
        {
          "internalType": "string",
          "name": "",
          "type": "string"
        }
      ],
      "stateMutability": "view",
      "type": "function"
    },
    {
      "inputs": [
        {
          "internalType": "address",
          "name": "_owner",
          "type": "address"
        }
      ],
      "name": "walletOfOwner",
      "outputs": [
        {
          "internalType": "uint256[]",
          "name": "",
          "type": "uint256[]"
        }
      ],
      "stateMutability": "view",
      "type": "function"
    },
    {
      "inputs": [
        {
          "internalType": "address",
          "name": "",
          "type": "address"
        }
      ],
      "name": "whitelistClaimed",
      "outputs": [
        {
          "internalType": "bool",
          "name": "",
          "type": "bool"
        }
      ],
      "stateMutability": "view",
      "type": "function"
    },
    {
      "inputs": [
        {
          "internalType": "uint256",
          "name": "_mintAmount",
          "type": "uint256"
        },
        {
          "internalType": "bytes32[]",
          "name": "_merkleProof",
          "type": "bytes32[]"
        }
      ],
      "name": "whitelistMint",
      "outputs": [],
      "stateMutability": "payable",
      "type": "function"
    },
    {
      "inputs": [],
      "name": "whitelistMintEnabled",
      "outputs": [
        {
          "internalType": "bool",
          "name": "",
          "type": "bool"
        }
      ],
      "stateMutability": "view",
      "type": "function"
    },
    {
      "inputs": [],
      "name": "withdraw",
      "outputs": [],
      "stateMutability": "nonpayable",
      "type": "function"
    }
  ],
  "bytecode": "0x60a06040819052600060808190526200001b91600c916200025d565b5060408051808201909152600580825264173539b7b760d91b60209092019182526200004a91600d916200025d565b506012805462ffffff191660011790553480156200006757600080fd5b5060405162002b5a38038062002b5a8339810160408190526200008a91620003d0565b855186908690620000a39060029060208501906200025d565b508051620000b99060039060208401906200025d565b5050600160005550620000cc3362000103565b6001600955620000dc8462000155565b6010839055620000ec82620001a9565b620000f781620001f9565b505050505050620004ba565b600880546001600160a01b038381166001600160a01b0319831681179093556040519116919082907f8be0079c531659141344cd1fd0a4f28419497f9722a3daafe3b4186f6b6457e090600090a35050565b6008546001600160a01b03163314620001a45760405162461bcd60e51b8152602060048201819052602482015260008051602062002b3a83398151915260448201526064015b60405180910390fd5b600f55565b6008546001600160a01b03163314620001f45760405162461bcd60e51b8152602060048201819052602482015260008051602062002b3a83398151915260448201526064016200019b565b601155565b6008546001600160a01b03163314620002445760405162461bcd60e51b8152602060048201819052602482015260008051602062002b3a83398151915260448201526064016200019b565b80516200025990600e9060208401906200025d565b5050565b8280546200026b906200047d565b90600052602060002090601f0160209004810192826200028f5760008555620002da565b82601f10620002aa57805160ff1916838001178555620002da565b82800160010185558215620002da579182015b82811115620002da578251825591602001919060010190620002bd565b50620002e8929150620002ec565b5090565b5b80821115620002e85760008155600101620002ed565b634e487b7160e01b600052604160045260246000fd5b600082601f8301126200032b57600080fd5b81516001600160401b038082111562000348576200034862000303565b604051601f8301601f19908116603f0116810190828211818310171562000373576200037362000303565b816040528381526020925086838588010111156200039057600080fd5b600091505b83821015620003b4578582018301518183018401529082019062000395565b83821115620003c65760008385830101525b9695505050505050565b60008060008060008060c08789031215620003ea57600080fd5b86516001600160401b03808211156200040257600080fd5b620004108a838b0162000319565b975060208901519150808211156200042757600080fd5b620004358a838b0162000319565b965060408901519550606089015194506080890151935060a08901519150808211156200046157600080fd5b506200047089828a0162000319565b9150509295509295509295565b600181811c908216806200049257607f821691505b60208210811415620004b457634e487b7160e01b600052602260045260246000fd5b50919050565b61267080620004ca6000396000f3fe6080604052600436106102515760003560e01c806370a0823111610139578063b071401b116100b6578063d5abeb011161007a578063d5abeb011461069d578063db4bec44146106b3578063e0a80853146106e3578063e985e9c514610703578063efbd73f41461074c578063f2fde38b1461076c57600080fd5b8063b071401b1461060a578063b767a0981461062a578063b88d4fde1461064a578063c87b56dd1461066a578063d2cab0561461068a57600080fd5b806394354fd0116100fd57806394354fd01461059757806395d89b41146105ad578063a0712d68146105c2578063a22cb465146105d5578063a45ba8e7146105f557600080fd5b806370a0823114610504578063715018a6146105245780637cb64759146105395780637ec4a659146105595780638da5cb5b1461057957600080fd5b80633ccfd60b116101d2578063518302271161019657806351830227146104615780635503a0e8146104815780635c975abb1461049657806362b99ad4146104b05780636352211e146104c55780636caede3d146104e557600080fd5b80633ccfd60b146103bf57806342842e0e146103d4578063438b6300146103f457806344a0d68a146104215780634fdd43cb1461044157600080fd5b806316ba10e01161021957806316ba10e01461032b57806316c38b3c1461034b57806318160ddd1461036b57806323b872dd146103895780632eb4a7ab146103a957600080fd5b806301ffc9a71461025657806306fdde031461028b578063081812fc146102ad578063095ea7b3146102e557806313faede614610307575b600080fd5b34801561026257600080fd5b50610276610271366004611f1f565b61078c565b60405190151581526020015b60405180910390f35b34801561029757600080fd5b506102a06107de565b6040516102829190611f94565b3480156102b957600080fd5b506102cd6102c8366004611fa7565b610870565b6040516001600160a01b039091168152602001610282565b3480156102f157600080fd5b50610305610300366004611fdc565b6108b4565b005b34801561031357600080fd5b5061031d600f5481565b604051908152602001610282565b34801561033757600080fd5b50610305610346366004612091565b610942565b34801561035757600080fd5b506103056103663660046120e9565b61098c565b34801561037757600080fd5b5061031d600154600054036000190190565b34801561039557600080fd5b506103056103a4366004612104565b6109c9565b3480156103b557600080fd5b5061031d600a5481565b3480156103cb57600080fd5b506103056109d4565b3480156103e057600080fd5b506103056103ef366004612104565b610acf565b34801561040057600080fd5b5061041461040f366004612140565b610aea565b604051610282919061215b565b34801561042d57600080fd5b5061030561043c366004611fa7565b610c2a565b34801561044d57600080fd5b5061030561045c366004612091565b610c59565b34801561046d57600080fd5b506012546102769062010000900460ff1681565b34801561048d57600080fd5b506102a0610c96565b3480156104a257600080fd5b506012546102769060ff1681565b3480156104bc57600080fd5b506102a0610d24565b3480156104d157600080fd5b506102cd6104e0366004611fa7565b610d31565b3480156104f157600080fd5b5060125461027690610100900460ff1681565b34801561051057600080fd5b5061031d61051f366004612140565b610d43565b34801561053057600080fd5b50610305610d91565b34801561054557600080fd5b50610305610554366004611fa7565b610dc7565b34801561056557600080fd5b50610305610574366004612091565b610df6565b34801561058557600080fd5b506008546001600160a01b03166102cd565b3480156105a357600080fd5b5061031d60115481565b3480156105b957600080fd5b506102a0610e33565b6103056105d0366004611fa7565b610e42565b3480156105e157600080fd5b506103056105f036600461219f565b610f2f565b34801561060157600080fd5b506102a0610fc5565b34801561061657600080fd5b50610305610625366004611fa7565b610fd2565b34801561063657600080fd5b506103056106453660046120e9565b611001565b34801561065657600080fd5b506103056106653660046121d2565b611045565b34801561067657600080fd5b506102a0610685366004611fa7565b611096565b61030561069836600461224d565b611209565b3480156106a957600080fd5b5061031d60105481565b3480156106bf57600080fd5b506102766106ce366004612140565b600b6020526000908152604090205460ff1681565b3480156106ef57600080fd5b506103056106fe3660046120e9565b611448565b34801561070f57600080fd5b5061027661071e3660046122cb565b6001600160a01b03918216600090815260076020908152604080832093909416825291909152205460ff1690565b34801561075857600080fd5b506103056107673660046122f5565b61148e565b34801561077857600080fd5b50610305610787366004612140565b61152e565b60006001600160e01b031982166380ac58cd60e01b14806107bd57506001600160e01b03198216635b5e139f60e01b145b806107d857506301ffc9a760e01b6001600160e01b03198316145b92915050565b6060600280546107ed90612318565b80601f016020809104026020016040519081016040528092919081815260200182805461081990612318565b80156108665780601f1061083b57610100808354040283529160200191610866565b820191906000526020600020905b81548152906001019060200180831161084957829003601f168201915b5050505050905090565b600061087b826115c9565b610898576040516333d1c03960e21b815260040160405180910390fd5b506000908152600660205260409020546001600160a01b031690565b60006108bf82610d31565b9050806001600160a01b0316836001600160a01b031614156108f45760405163250fdee360e21b815260040160405180910390fd5b336001600160a01b038216148015906109145750610912813361071e565b155b15610932576040516367d9dca160e11b815260040160405180910390fd5b61093d838383611602565b505050565b6008546001600160a01b031633146109755760405162461bcd60e51b815260040161096c90612353565b60405180910390fd5b805161098890600d906020840190611e70565b5050565b6008546001600160a01b031633146109b65760405162461bcd60e51b815260040161096c90612353565b6012805460ff1916911515919091179055565b61093d83838361165e565b6008546001600160a01b031633146109fe5760405162461bcd60e51b815260040161096c90612353565b60026009541415610a515760405162461bcd60e51b815260206004820152601f60248201527f5265656e7472616e637947756172643a207265656e7472616e742063616c6c00604482015260640161096c565b60026009556000610a6a6008546001600160a01b031690565b6001600160a01b03164760405160006040518083038185875af1925050503d8060008114610ab4576040519150601f19603f3d011682016040523d82523d6000602084013e610ab9565b606091505b5050905080610ac757600080fd5b506001600955565b61093d83838360405180602001604052806000815250611045565b60606000610af783610d43565b90506000816001600160401b03811115610b1357610b13612006565b604051908082528060200260200182016040528015610b3c578160200160208202803683370190505b50905060016000805b8482108015610b55575060005483105b15610c1f57600083815260046020908152604091829020825160608101845290546001600160a01b0381168252600160a01b81046001600160401b031692820192909252600160e01b90910460ff16151591810182905290610c0c5780516001600160a01b031615610bc657805191505b876001600160a01b0316826001600160a01b03161415610c0c5783858481518110610bf357610bf3612388565b602090810291909101015282610c08816123b4565b9350505b83610c16816123b4565b94505050610b45565b509195945050505050565b6008546001600160a01b03163314610c545760405162461bcd60e51b815260040161096c90612353565b600f55565b6008546001600160a01b03163314610c835760405162461bcd60e51b815260040161096c90612353565b805161098890600e906020840190611e70565b600d8054610ca390612318565b80601f0160208091040260200160405190810160405280929190818152602001828054610ccf90612318565b8015610d1c5780601f10610cf157610100808354040283529160200191610d1c565b820191906000526020600020905b815481529060010190602001808311610cff57829003601f168201915b505050505081565b600c8054610ca390612318565b6000610d3c82611872565b5192915050565b60006001600160a01b038216610d6c576040516323d3ad8160e21b815260040160405180910390fd5b506001600160a01b03166000908152600560205260409020546001600160401b031690565b6008546001600160a01b03163314610dbb5760405162461bcd60e51b815260040161096c90612353565b610dc56000611999565b565b6008546001600160a01b03163314610df15760405162461bcd60e51b815260040161096c90612353565b600a55565b6008546001600160a01b03163314610e205760405162461bcd60e51b815260040161096c90612353565b805161098890600c906020840190611e70565b6060600380546107ed90612318565b80600081118015610e5557506011548111155b610e715760405162461bcd60e51b815260040161096c906123cf565b60105481610e86600154600054036000190190565b610e909190612404565b1115610eae5760405162461bcd60e51b815260040161096c9061241c565b8180600f54610ebd9190612453565b341015610edc5760405162461bcd60e51b815260040161096c90612472565b60125460ff1615610f255760405162461bcd60e51b81526020600482015260136024820152725468652073616c65206973207061757365642160681b604482015260640161096c565b61093d33846119eb565b6001600160a01b038216331415610f595760405163b06307db60e01b815260040160405180910390fd5b3360008181526007602090815260408083206001600160a01b03871680855290835292819020805460ff191686151590811790915590519081529192917f17307eab39ab6107e8899845ad3d59bd9653f200f220920489ca2b5937696c31910160405180910390a35050565b600e8054610ca390612318565b6008546001600160a01b03163314610ffc5760405162461bcd60e51b815260040161096c90612353565b601155565b6008546001600160a01b0316331461102b5760405162461bcd60e51b815260040161096c90612353565b601280549115156101000261ff0019909216919091179055565b61105084848461165e565b6001600160a01b0383163b15158015611072575061107084848484611a05565b155b15611090576040516368d2bf6b60e11b815260040160405180910390fd5b50505050565b60606110a1826115c9565b6111085760405162461bcd60e51b815260206004820152603260248201527f4552433732314d657461646174613a2074686520746f6b656e207370656369666044820152711a595908191bd95cc81b9bdd08195e1a5cdd60721b606482015260840161096c565b60125462010000900460ff166111aa57600e805461112590612318565b80601f016020809104026020016040519081016040528092919081815260200182805461115190612318565b801561119e5780601f106111735761010080835404028352916020019161119e565b820191906000526020600020905b81548152906001019060200180831161118157829003601f168201915b50505050509050919050565b60006111b4611afd565b905060008151116111d45760405180602001604052806000815250611202565b806111de84611b0c565b600d6040516020016111f2939291906124c7565b6040516020818303038152906040525b9392505050565b8260008111801561121c57506011548111155b6112385760405162461bcd60e51b815260040161096c906123cf565b6010548161124d600154600054036000190190565b6112579190612404565b11156112755760405162461bcd60e51b815260040161096c9061241c565b8380600f546112849190612453565b3410156112a35760405162461bcd60e51b815260040161096c90612472565b601254610100900460ff166113055760405162461bcd60e51b815260206004820152602260248201527f5468652077686974656c6973742073616c65206973206e6f7420656e61626c65604482015261642160f01b606482015260840161096c565b336000908152600b602052604090205460ff16156113655760405162461bcd60e51b815260206004820152601860248201527f4164647265737320616c726561647920636c61696d6564210000000000000000604482015260640161096c565b6040516bffffffffffffffffffffffff193360601b1660208201526000906034016040516020818303038152906040528051906020012090506113df85858080602002602001604051908101604052809392919081815260200183836020028082843760009201919091525050600a549150849050611c09565b61141c5760405162461bcd60e51b815260206004820152600e60248201526d496e76616c69642070726f6f662160901b604482015260640161096c565b336000818152600b60205260409020805460ff1916600117905561144090876119eb565b505050505050565b6008546001600160a01b031633146114725760405162461bcd60e51b815260040161096c90612353565b60128054911515620100000262ff000019909216919091179055565b816000811180156114a157506011548111155b6114bd5760405162461bcd60e51b815260040161096c906123cf565b601054816114d2600154600054036000190190565b6114dc9190612404565b11156114fa5760405162461bcd60e51b815260040161096c9061241c565b6008546001600160a01b031633146115245760405162461bcd60e51b815260040161096c90612353565b61093d82846119eb565b6008546001600160a01b031633146115585760405162461bcd60e51b815260040161096c90612353565b6001600160a01b0381166115bd5760405162461bcd60e51b815260206004820152602660248201527f4f776e61626c653a206e6577206f776e657220697320746865207a65726f206160448201526564647265737360d01b606482015260840161096c565b6115c681611999565b50565b6000816001111580156115dd575060005482105b80156107d8575050600090815260046020526040902054600160e01b900460ff161590565b60008281526006602052604080822080546001600160a01b0319166001600160a01b0387811691821790925591518593918516917f8c5be1e5ebec7d5bd14f71427d1e84f3dd0314c0f7b2291e5b200ac8c7c3b92591a4505050565b600061166982611872565b80519091506000906001600160a01b0316336001600160a01b0316148061169757508151611697903361071e565b806116b25750336116a784610870565b6001600160a01b0316145b9050806116d257604051632ce44b5f60e11b815260040160405180910390fd5b846001600160a01b031682600001516001600160a01b0316146117075760405162a1148160e81b815260040160405180910390fd5b6001600160a01b03841661172e57604051633a954ecd60e21b815260040160405180910390fd5b61173e6000848460000151611602565b6001600160a01b038581166000908152600560209081526040808320805467ffffffffffffffff198082166001600160401b0392831660001901831617909255898616808652838620805493841693831660019081018416949094179055898652600490945282852080546001600160e01b031916909417600160a01b4290921691909102179092559086018083529120549091166118285760005481101561182857825160008281526004602090815260409091208054918601516001600160401b0316600160a01b026001600160e01b03199092166001600160a01b03909316929092171790555b5082846001600160a01b0316866001600160a01b03167fddf252ad1be2c89b69c2b068fc378daa952ba7f163c4a11628f55a4df523b3ef60405160405180910390a45b5050505050565b604080516060810182526000808252602082018190529181019190915281806001111580156118a2575060005481105b1561198057600081815260046020908152604091829020825160608101845290546001600160a01b0381168252600160a01b81046001600160401b031692820192909252600160e01b90910460ff1615159181018290529061197e5780516001600160a01b031615611915579392505050565b5060001901600081815260046020908152604091829020825160608101845290546001600160a01b038116808352600160a01b82046001600160401b031693830193909352600160e01b900460ff1615159281019290925215611979579392505050565b611915565b505b604051636f96cda160e11b815260040160405180910390fd5b600880546001600160a01b038381166001600160a01b0319831681179093556040519116919082907f8be0079c531659141344cd1fd0a4f28419497f9722a3daafe3b4186f6b6457e090600090a35050565b610988828260405180602001604052806000815250611c1f565b604051630a85bd0160e11b81526000906001600160a01b0385169063150b7a0290611a3a90339089908890889060040161258b565b602060405180830381600087803b158015611a5457600080fd5b505af1925050508015611a84575060408051601f3d908101601f19168201909252611a81918101906125c8565b60015b611adf573d808015611ab2576040519150601f19603f3d011682016040523d82523d6000602084013e611ab7565b606091505b508051611ad7576040516368d2bf6b60e11b815260040160405180910390fd5b805181602001fd5b6001600160e01b031916630a85bd0160e11b1490505b949350505050565b6060600c80546107ed90612318565b606081611b305750506040805180820190915260018152600360fc1b602082015290565b8160005b8115611b5a5780611b44816123b4565b9150611b539050600a836125fb565b9150611b34565b6000816001600160401b03811115611b7457611b74612006565b6040519080825280601f01601f191660200182016040528015611b9e576020820181803683370190505b5090505b8415611af557611bb360018361260f565b9150611bc0600a86612626565b611bcb906030612404565b60f81b818381518110611be057611be0612388565b60200101906001600160f81b031916908160001a905350611c02600a866125fb565b9450611ba2565b600082611c168584611c2c565b14949350505050565b61093d8383836001611ca0565b600081815b8451811015611c98576000858281518110611c4e57611c4e612388565b60200260200101519050808311611c745760008381526020829052604090209250611c85565b600081815260208490526040902092505b5080611c90816123b4565b915050611c31565b509392505050565b6000546001600160a01b038516611cc957604051622e076360e81b815260040160405180910390fd5b83611ce75760405163b562e8dd60e01b815260040160405180910390fd5b6001600160a01b038516600081815260056020908152604080832080546fffffffffffffffffffffffffffffffff1981166001600160401b038083168c0181169182176801000000000000000067ffffffffffffffff1990941690921783900481168c01811690920217909155858452600490925290912080546001600160e01b031916909217600160a01b429092169190910217905580808501838015611d9857506001600160a01b0387163b15155b15611e21575b60405182906001600160a01b038916906000907fddf252ad1be2c89b69c2b068fc378daa952ba7f163c4a11628f55a4df523b3ef908290a4611de96000888480600101955088611a05565b611e06576040516368d2bf6b60e11b815260040160405180910390fd5b80821415611d9e578260005414611e1c57600080fd5b611e67565b5b6040516001830192906001600160a01b038916906000907fddf252ad1be2c89b69c2b068fc378daa952ba7f163c4a11628f55a4df523b3ef908290a480821415611e22575b5060005561186b565b828054611e7c90612318565b90600052602060002090601f016020900481019282611e9e5760008555611ee4565b82601f10611eb757805160ff1916838001178555611ee4565b82800160010185558215611ee4579182015b82811115611ee4578251825591602001919060010190611ec9565b50611ef0929150611ef4565b5090565b5b80821115611ef05760008155600101611ef5565b6001600160e01b0319811681146115c657600080fd5b600060208284031215611f3157600080fd5b813561120281611f09565b60005b83811015611f57578181015183820152602001611f3f565b838111156110905750506000910152565b60008151808452611f80816020860160208601611f3c565b601f01601f19169290920160200192915050565b6020815260006112026020830184611f68565b600060208284031215611fb957600080fd5b5035919050565b80356001600160a01b0381168114611fd757600080fd5b919050565b60008060408385031215611fef57600080fd5b611ff883611fc0565b946020939093013593505050565b634e487b7160e01b600052604160045260246000fd5b60006001600160401b038084111561203657612036612006565b604051601f8501601f19908116603f0116810190828211818310171561205e5761205e612006565b8160405280935085815286868601111561207757600080fd5b858560208301376000602087830101525050509392505050565b6000602082840312156120a357600080fd5b81356001600160401b038111156120b957600080fd5b8201601f810184136120ca57600080fd5b611af58482356020840161201c565b80358015158114611fd757600080fd5b6000602082840312156120fb57600080fd5b611202826120d9565b60008060006060848603121561211957600080fd5b61212284611fc0565b925061213060208501611fc0565b9150604084013590509250925092565b60006020828403121561215257600080fd5b61120282611fc0565b6020808252825182820181905260009190848201906040850190845b8181101561219357835183529284019291840191600101612177565b50909695505050505050565b600080604083850312156121b257600080fd5b6121bb83611fc0565b91506121c9602084016120d9565b90509250929050565b600080600080608085870312156121e857600080fd5b6121f185611fc0565b93506121ff60208601611fc0565b92506040850135915060608501356001600160401b0381111561222157600080fd5b8501601f8101871361223257600080fd5b6122418782356020840161201c565b91505092959194509250565b60008060006040848603121561226257600080fd5b8335925060208401356001600160401b038082111561228057600080fd5b818601915086601f83011261229457600080fd5b8135818111156122a357600080fd5b8760208260051b85010111156122b857600080fd5b6020830194508093505050509250925092565b600080604083850312156122de57600080fd5b6122e783611fc0565b91506121c960208401611fc0565b6000806040838503121561230857600080fd5b823591506121c960208401611fc0565b600181811c9082168061232c57607f821691505b6020821081141561234d57634e487b7160e01b600052602260045260246000fd5b50919050565b6020808252818101527f4f776e61626c653a2063616c6c6572206973206e6f7420746865206f776e6572604082015260600190565b634e487b7160e01b600052603260045260246000fd5b634e487b7160e01b600052601160045260246000fd5b60006000198214156123c8576123c861239e565b5060010190565b6020808252818101527f596f752063616e206e6f74206d696e742074686973206d616e79206974656d73604082015260600190565b600082198211156124175761241761239e565b500190565b6020808252601c908201527f4d617820737570706c7920686173206265656e20657863656564656400000000604082015260600190565b600081600019048311821515161561246d5761246d61239e565b500290565b60208082526035908201527f596f7520646964206e6f742073656e6420656e6f7567682045544820746f20636040820152746f6d706c657465207468697320707572636861736560581b606082015260800190565b6000845160206124da8285838a01611f3c565b8551918401916124ed8184848a01611f3c565b8554920191600090600181811c908083168061250a57607f831692505b85831081141561252857634e487b7160e01b85526022600452602485fd5b80801561253c576001811461254d5761257a565b60ff1985168852838801955061257a565b60008b81526020902060005b858110156125725781548a820152908401908801612559565b505083880195505b50939b9a5050505050505050505050565b6001600160a01b03858116825284166020820152604081018390526080606082018190526000906125be90830184611f68565b9695505050505050565b6000602082840312156125da57600080fd5b815161120281611f09565b634e487b7160e01b600052601260045260246000fd5b60008261260a5761260a6125e5565b500490565b6000828210156126215761262161239e565b500390565b600082612635576126356125e5565b50069056fea26469706673582212205bea661f320e6e09dc9a639b463c4215ae795c20ef7322f59fc6621b7978c6ae64736f6c634300080900334f776e61626c653a2063616c6c6572206973206e6f7420746865206f776e6572",
  "linkReferences": {},
  "deployedLinkReferences": {}
}