{
  "_format": "hh-sol-artifact-1",
  "contractName": "SheBloomsCollection",
  "sourceName": "contracts/SheBloomsCollection.sol",
  "abi": [
    {
      "inputs": [
        {
          "internalType": "string",
          "name": "_tokenName",
          "type": "string"
        },
        {
          "internalType": "string",
          "name": "_tokenSymbol",
          "type": "string"
        },
        {
          "internalType": "uint256",
          "name": "_cost",
          "type": "uint256"
        },
        {
          "internalType": "uint256",
          "name": "_maxSupply",
          "type": "uint256"
        },
        {
          "internalType": "uint256",
          "name": "_maxMintAmountPerTx",
          "type": "uint256"
        },
        {
          "internalType": "string",
          "name": "_hiddenMetadataUri",
          "type": "string"
        }
      ],
      "stateMutability": "nonpayable",
      "type": "constructor"
    },
    {
      "inputs": [],
      "name": "ApprovalCallerNotOwnerNorApproved",
      "type": "error"
    },
    {
      "inputs": [],
      "name": "ApprovalQueryForNonexistentToken",
      "type": "error"
    },
    {
      "inputs": [],
      "name": "ApprovalToCurrentOwner",
      "type": "error"
    },
    {
      "inputs": [],
      "name": "ApproveToCaller",
      "type": "error"
    },
    {
      "inputs": [],
      "name": "BalanceQueryForZeroAddress",
      "type": "error"
    },
    {
      "inputs": [],
      "name": "MintToZeroAddress",
      "type": "error"
    },
    {
      "inputs": [],
      "name": "MintZeroQuantity",
      "type": "error"
    },
    {
      "inputs": [],
      "name": "OwnerQueryForNonexistentToken",
      "type": "error"
    },
    {
      "inputs": [],
      "name": "TransferCallerNotOwnerNorApproved",
      "type": "error"
    },
    {
      "inputs": [],
      "name": "TransferFromIncorrectOwner",
      "type": "error"
    },
    {
      "inputs": [],
      "name": "TransferToNonERC721ReceiverImplementer",
      "type": "error"
    },
    {
      "inputs": [],
      "name": "TransferToZeroAddress",
      "type": "error"
    },
    {
      "anonymous": false,
      "inputs": [
        {
          "indexed": true,
          "internalType": "address",
          "name": "owner",
          "type": "address"
        },
        {
          "indexed": true,
          "internalType": "address",
          "name": "approved",
          "type": "address"
        },
        {
          "indexed": true,
          "internalType": "uint256",
          "name": "tokenId",
          "type": "uint256"
        }
      ],
      "name": "Approval",
      "type": "event"
    },
    {
      "anonymous": false,
      "inputs": [
        {
          "indexed": true,
          "internalType": "address",
          "name": "owner",
          "type": "address"
        },
        {
          "indexed": true,
          "internalType": "address",
          "name": "operator",
          "type": "address"
        },
        {
          "indexed": false,
          "internalType": "bool",
          "name": "approved",
          "type": "bool"
        }
      ],
      "name": "ApprovalForAll",
      "type": "event"
    },
    {
      "anonymous": false,
      "inputs": [
        {
          "indexed": true,
          "internalType": "address",
          "name": "previousOwner",
          "type": "address"
        },
        {
          "indexed": true,
          "internalType": "address",
          "name": "newOwner",
          "type": "address"
        }
      ],
      "name": "OwnershipTransferred",
      "type": "event"
    },
    {
      "anonymous": false,
      "inputs": [
        {
          "indexed": true,
          "internalType": "address",
          "name": "from",
          "type": "address"
        },
        {
          "indexed": true,
          "internalType": "address",
          "name": "to",
          "type": "address"
        },
        {
          "indexed": true,
          "internalType": "uint256",
          "name": "tokenId",
          "type": "uint256"
        }
      ],
      "name": "Transfer",
      "type": "event"
    },
    {
      "inputs": [
        {
          "internalType": "address",
          "name": "to",
          "type": "address"
        },
        {
          "internalType": "uint256",
          "name": "tokenId",
          "type": "uint256"
        }
      ],
      "name": "approve",
      "outputs": [],
      "stateMutability": "nonpayable",
      "type": "function"
    },
    {
      "inputs": [
        {
          "internalType": "address",
          "name": "owner",
          "type": "address"
        }
      ],
      "name": "balanceOf",
      "outputs": [
        {
          "internalType": "uint256",
          "name": "",
          "type": "uint256"
        }
      ],
      "stateMutability": "view",
      "type": "function"
    },
    {
      "inputs": [],
      "name": "cost",
      "outputs": [
        {
          "internalType": "uint256",
          "name": "",
          "type": "uint256"
        }
      ],
      "stateMutability": "view",
      "type": "function"
    },
    {
      "inputs": [
        {
          "internalType": "address",
          "name": "",
          "type": "address"
        }
      ],
      "name": "freeListClaimed",
      "outputs": [
        {
          "internalType": "bool",
          "name": "",
          "type": "bool"
        }
      ],
      "stateMutability": "view",
      "type": "function"
    },
    {
      "inputs": [],
      "name": "freeListMerkleRoot",
      "outputs": [
        {
          "internalType": "bytes32",
          "name": "",
          "type": "bytes32"
        }
      ],
      "stateMutability": "view",
      "type": "function"
    },
    {
      "inputs": [
        {
          "internalType": "uint256",
          "name": "_mintAmount",
          "type": "uint256"
        },
        {
          "internalType": "bytes32[]",
          "name": "_merkleProof",
          "type": "bytes32[]"
        }
      ],
      "name": "freeListMint",
      "outputs": [],
      "stateMutability": "payable",
      "type": "function"
    },
    {
      "inputs": [],
      "name": "freeListMintEnabled",
      "outputs": [
        {
          "internalType": "bool",
          "name": "",
          "type": "bool"
        }
      ],
      "stateMutability": "view",
      "type": "function"
    },
    {
      "inputs": [
        {
          "internalType": "uint256",
          "name": "tokenId",
          "type": "uint256"
        }
      ],
      "name": "getApproved",
      "outputs": [
        {
          "internalType": "address",
          "name": "",
          "type": "address"
        }
      ],
      "stateMutability": "view",
      "type": "function"
    },
    {
      "inputs": [
        {
          "internalType": "address",
          "name": "",
          "type": "address"
        }
      ],
      "name": "goldListClaimed",
      "outputs": [
        {
          "internalType": "bool",
          "name": "",
          "type": "bool"
        }
      ],
      "stateMutability": "view",
      "type": "function"
    },
    {
      "inputs": [],
      "name": "goldListMerkleRoot",
      "outputs": [
        {
          "internalType": "bytes32",
          "name": "",
          "type": "bytes32"
        }
      ],
      "stateMutability": "view",
      "type": "function"
    },
    {
      "inputs": [
        {
          "internalType": "uint256",
          "name": "_mintAmount",
          "type": "uint256"
        },
        {
          "internalType": "bytes32[]",
          "name": "_merkleProof",
          "type": "bytes32[]"
        }
      ],
      "name": "goldListMint",
      "outputs": [],
      "stateMutability": "payable",
      "type": "function"
    },
    {
      "inputs": [],
      "name": "goldListMintEnabled",
      "outputs": [
        {
          "internalType": "bool",
          "name": "",
          "type": "bool"
        }
      ],
      "stateMutability": "view",
      "type": "function"
    },
    {
      "inputs": [],
      "name": "hiddenMetadataUri",
      "outputs": [
        {
          "internalType": "string",
          "name": "",
          "type": "string"
        }
      ],
      "stateMutability": "view",
      "type": "function"
    },
    {
      "inputs": [
        {
          "internalType": "address",
          "name": "owner",
          "type": "address"
        },
        {
          "internalType": "address",
          "name": "operator",
          "type": "address"
        }
      ],
      "name": "isApprovedForAll",
      "outputs": [
        {
          "internalType": "bool",
          "name": "",
          "type": "bool"
        }
      ],
      "stateMutability": "view",
      "type": "function"
    },
    {
      "inputs": [],
      "name": "maxMintAmountPerTx",
      "outputs": [
        {
          "internalType": "uint256",
          "name": "",
          "type": "uint256"
        }
      ],
      "stateMutability": "view",
      "type": "function"
    },
    {
      "inputs": [],
      "name": "maxSupply",
      "outputs": [
        {
          "internalType": "uint256",
          "name": "",
          "type": "uint256"
        }
      ],
      "stateMutability": "view",
      "type": "function"
    },
    {
      "inputs": [
        {
          "internalType": "uint256",
          "name": "_mintAmount",
          "type": "uint256"
        }
      ],
      "name": "mint",
      "outputs": [],
      "stateMutability": "payable",
      "type": "function"
    },
    {
      "inputs": [
        {
          "internalType": "uint256",
          "name": "_mintAmount",
          "type": "uint256"
        },
        {
          "internalType": "address",
          "name": "_receiver",
          "type": "address"
        }
      ],
      "name": "mintForAddress",
      "outputs": [],
      "stateMutability": "nonpayable",
      "type": "function"
    },
    {
      "inputs": [],
      "name": "mintLimit",
      "outputs": [
        {
          "internalType": "uint256",
          "name": "",
          "type": "uint256"
        }
      ],
      "stateMutability": "view",
      "type": "function"
    },
    {
      "inputs": [],
      "name": "name",
      "outputs": [
        {
          "internalType": "string",
          "name": "",
          "type": "string"
        }
      ],
      "stateMutability": "view",
      "type": "function"
    },
    {
      "inputs": [],
      "name": "owner",
      "outputs": [
        {
          "internalType": "address",
          "name": "",
          "type": "address"
        }
      ],
      "stateMutability": "view",
      "type": "function"
    },
    {
      "inputs": [
        {
          "internalType": "uint256",
          "name": "tokenId",
          "type": "uint256"
        }
      ],
      "name": "ownerOf",
      "outputs": [
        {
          "internalType": "address",
          "name": "",
          "type": "address"
        }
      ],
      "stateMutability": "view",
      "type": "function"
    },
    {
      "inputs": [],
      "name": "paused",
      "outputs": [
        {
          "internalType": "bool",
          "name": "",
          "type": "bool"
        }
      ],
      "stateMutability": "view",
      "type": "function"
    },
    {
      "inputs": [],
      "name": "preSaleMintEnabled",
      "outputs": [
        {
          "internalType": "bool",
          "name": "",
          "type": "bool"
        }
      ],
      "stateMutability": "view",
      "type": "function"
    },
    {
      "inputs": [],
      "name": "released",
      "outputs": [
        {
          "internalType": "bool",
          "name": "",
          "type": "bool"
        }
      ],
      "stateMutability": "view",
      "type": "function"
    },
    {
      "inputs": [],
      "name": "renounceOwnership",
      "outputs": [],
      "stateMutability": "nonpayable",
      "type": "function"
    },
    {
      "inputs": [],
      "name": "revealed",
      "outputs": [
        {
          "internalType": "bool",
          "name": "",
          "type": "bool"
        }
      ],
      "stateMutability": "view",
      "type": "function"
    },
    {
      "inputs": [
        {
          "internalType": "address",
          "name": "from",
          "type": "address"
        },
        {
          "internalType": "address",
          "name": "to",
          "type": "address"
        },
        {
          "internalType": "uint256",
          "name": "tokenId",
          "type": "uint256"
        }
      ],
      "name": "safeTransferFrom",
      "outputs": [],
      "stateMutability": "nonpayable",
      "type": "function"
    },
    {
      "inputs": [
        {
          "internalType": "address",
          "name": "from",
          "type": "address"
        },
        {
          "internalType": "address",
          "name": "to",
          "type": "address"
        },
        {
          "internalType": "uint256",
          "name": "tokenId",
          "type": "uint256"
        },
        {
          "internalType": "bytes",
          "name": "_data",
          "type": "bytes"
        }
      ],
      "name": "safeTransferFrom",
      "outputs": [],
      "stateMutability": "nonpayable",
      "type": "function"
    },
    {
      "inputs": [
        {
          "internalType": "address",
          "name": "operator",
          "type": "address"
        },
        {
          "internalType": "bool",
          "name": "approved",
          "type": "bool"
        }
      ],
      "name": "setApprovalForAll",
      "outputs": [],
      "stateMutability": "nonpayable",
      "type": "function"
    },
    {
      "inputs": [
        {
          "internalType": "uint256",
          "name": "_cost",
          "type": "uint256"
        }
      ],
      "name": "setCost",
      "outputs": [],
      "stateMutability": "nonpayable",
      "type": "function"
    },
    {
      "inputs": [
        {
          "internalType": "bytes32",
          "name": "_merkleRoot",
          "type": "bytes32"
        }
      ],
      "name": "setFreeListMerkleRoot",
      "outputs": [],
      "stateMutability": "nonpayable",
      "type": "function"
    },
    {
      "inputs": [
        {
          "internalType": "bool",
          "name": "_state",
          "type": "bool"
        }
      ],
      "name": "setFreeListMintEnabled",
      "outputs": [],
      "stateMutability": "nonpayable",
      "type": "function"
    },
    {
      "inputs": [
        {
          "internalType": "bytes32",
          "name": "_merkleRoot",
          "type": "bytes32"
        }
      ],
      "name": "setGoldListMerkleRoot",
      "outputs": [],
      "stateMutability": "nonpayable",
      "type": "function"
    },
    {
      "inputs": [
        {
          "internalType": "bool",
          "name": "_state",
          "type": "bool"
        }
      ],
      "name": "setGoldListMintEnabled",
      "outputs": [],
      "stateMutability": "nonpayable",
      "type": "function"
    },
    {
      "inputs": [
        {
          "internalType": "string",
          "name": "_hiddenMetadataUri",
          "type": "string"
        }
      ],
      "name": "setHiddenMetadataUri",
      "outputs": [],
      "stateMutability": "nonpayable",
      "type": "function"
    },
    {
      "inputs": [
        {
          "internalType": "uint256",
          "name": "_maxMintAmountPerTx",
          "type": "uint256"
        }
      ],
      "name": "setMaxMintAmountPerTx",
      "outputs": [],
      "stateMutability": "nonpayable",
      "type": "function"
    },
    {
      "inputs": [
        {
          "internalType": "uint256",
          "name": "_mintLimit",
          "type": "uint256"
        }
      ],
      "name": "setMintLimit",
      "outputs": [],
      "stateMutability": "nonpayable",
      "type": "function"
    },
    {
      "inputs": [
        {
          "internalType": "bool",
          "name": "_state",
          "type": "bool"
        }
      ],
      "name": "setPaused",
      "outputs": [],
      "stateMutability": "nonpayable",
      "type": "function"
    },
    {
      "inputs": [
        {
          "internalType": "bool",
          "name": "_state",
          "type": "bool"
        }
      ],
      "name": "setPreSaleMintEnabled",
      "outputs": [],
      "stateMutability": "nonpayable",
      "type": "function"
    },
    {
      "inputs": [
        {
          "internalType": "bool",
          "name": "_state",
          "type": "bool"
        }
      ],
      "name": "setReleased",
      "outputs": [],
      "stateMutability": "nonpayable",
      "type": "function"
    },
    {
      "inputs": [
        {
          "internalType": "bool",
          "name": "_state",
          "type": "bool"
        }
      ],
      "name": "setRevealed",
      "outputs": [],
      "stateMutability": "nonpayable",
      "type": "function"
    },
    {
      "inputs": [
        {
          "internalType": "string",
          "name": "_uriPrefix",
          "type": "string"
        }
      ],
      "name": "setUriPrefix",
      "outputs": [],
      "stateMutability": "nonpayable",
      "type": "function"
    },
    {
      "inputs": [
        {
          "internalType": "string",
          "name": "_uriSuffix",
          "type": "string"
        }
      ],
      "name": "setUriSuffix",
      "outputs": [],
      "stateMutability": "nonpayable",
      "type": "function"
    },
    {
      "inputs": [
        {
          "internalType": "bytes4",
          "name": "interfaceId",
          "type": "bytes4"
        }
      ],
      "name": "supportsInterface",
      "outputs": [
        {
          "internalType": "bool",
          "name": "",
          "type": "bool"
        }
      ],
      "stateMutability": "view",
      "type": "function"
    },
    {
      "inputs": [],
      "name": "symbol",
      "outputs": [
        {
          "internalType": "string",
          "name": "",
          "type": "string"
        }
      ],
      "stateMutability": "view",
      "type": "function"
    },
    {
      "inputs": [
        {
          "internalType": "uint256",
          "name": "_tokenId",
          "type": "uint256"
        }
      ],
      "name": "tokenURI",
      "outputs": [
        {
          "internalType": "string",
          "name": "",
          "type": "string"
        }
      ],
      "stateMutability": "view",
      "type": "function"
    },
    {
      "inputs": [],
      "name": "totalSupply",
      "outputs": [
        {
          "internalType": "uint256",
          "name": "",
          "type": "uint256"
        }
      ],
      "stateMutability": "view",
      "type": "function"
    },
    {
      "inputs": [
        {
          "internalType": "address",
          "name": "from",
          "type": "address"
        },
        {
          "internalType": "address",
          "name": "to",
          "type": "address"
        },
        {
          "internalType": "uint256",
          "name": "tokenId",
          "type": "uint256"
        }
      ],
      "name": "transferFrom",
      "outputs": [],
      "stateMutability": "nonpayable",
      "type": "function"
    },
    {
      "inputs": [
        {
          "internalType": "address",
          "name": "newOwner",
          "type": "address"
        }
      ],
      "name": "transferOwnership",
      "outputs": [],
      "stateMutability": "nonpayable",
      "type": "function"
    },
    {
      "inputs": [],
      "name": "uriPrefix",
      "outputs": [
        {
          "internalType": "string",
          "name": "",
          "type": "string"
        }
      ],
      "stateMutability": "view",
      "type": "function"
    },
    {
      "inputs": [],
      "name": "uriSuffix",
      "outputs": [
        {
          "internalType": "string",
          "name": "",
          "type": "string"
        }
      ],
      "stateMutability": "view",
      "type": "function"
    },
    {
      "inputs": [
        {
          "internalType": "address",
          "name": "_owner",
          "type": "address"
        }
      ],
      "name": "walletOfOwner",
      "outputs": [
        {
          "internalType": "uint256[]",
          "name": "",
          "type": "uint256[]"
        }
      ],
      "stateMutability": "view",
      "type": "function"
    },
    {
      "inputs": [],
      "name": "withdraw",
      "outputs": [],
      "stateMutability": "nonpayable",
      "type": "function"
    }
  ],
  "bytecode": "0x60a06040819052600060808190526200001b91600e9162000265565b5060408051808201909152600580825264173539b7b760d91b60209092019182526200004a91600f9162000265565b506015805465ffffffffffff191660011790553480156200006a57600080fd5b50604051620031cb380380620031cb8339810160408190526200008d91620003d8565b855186908690620000a690600290602085019062000265565b508051620000bc90600390602084019062000265565b5050600160005550620000cf336200010b565b6001600955620000df846200015d565b60128390556013839055620000f482620001b1565b620000ff8162000201565b505050505050620004c2565b600880546001600160a01b038381166001600160a01b0319831681179093556040519116919082907f8be0079c531659141344cd1fd0a4f28419497f9722a3daafe3b4186f6b6457e090600090a35050565b6008546001600160a01b03163314620001ac5760405162461bcd60e51b81526020600482018190526024820152600080516020620031ab83398151915260448201526064015b60405180910390fd5b601155565b6008546001600160a01b03163314620001fc5760405162461bcd60e51b81526020600482018190526024820152600080516020620031ab8339815191526044820152606401620001a3565b601455565b6008546001600160a01b031633146200024c5760405162461bcd60e51b81526020600482018190526024820152600080516020620031ab8339815191526044820152606401620001a3565b80516200026190601090602084019062000265565b5050565b828054620002739062000485565b90600052602060002090601f016020900481019282620002975760008555620002e2565b82601f10620002b257805160ff1916838001178555620002e2565b82800160010185558215620002e2579182015b82811115620002e2578251825591602001919060010190620002c5565b50620002f0929150620002f4565b5090565b5b80821115620002f05760008155600101620002f5565b634e487b7160e01b600052604160045260246000fd5b600082601f8301126200033357600080fd5b81516001600160401b03808211156200035057620003506200030b565b604051601f8301601f19908116603f011681019082821181831017156200037b576200037b6200030b565b816040528381526020925086838588010111156200039857600080fd5b600091505b83821015620003bc57858201830151818301840152908201906200039d565b83821115620003ce5760008385830101525b9695505050505050565b60008060008060008060c08789031215620003f257600080fd5b86516001600160401b03808211156200040a57600080fd5b620004188a838b0162000321565b975060208901519150808211156200042f57600080fd5b6200043d8a838b0162000321565b965060408901519550606089015194506080890151935060a08901519150808211156200046957600080fd5b506200047889828a0162000321565b9150509295509295509295565b600181811c908216806200049a57607f821691505b60208210811415620004bc57634e487b7160e01b600052602260045260246000fd5b50919050565b612cd980620004d26000396000f3fe6080604052600436106103355760003560e01c80637ec4a659116101ab578063c280c88e116100f7578063e872493711610095578063efbd73f41161006f578063efbd73f414610973578063f2fde38b14610993578063f4465dbd146109b3578063fb0220c2146109c657600080fd5b8063e8724937146108ea578063e985e9c51461090a578063ef351f6c1461095357600080fd5b8063d1fea3d5116100d1578063d1fea3d514610864578063d5abeb0114610884578063d612620b1461089a578063e0a80853146108ca57600080fd5b8063c280c88e14610804578063c284094414610824578063c87b56dd1461084457600080fd5b8063996517cf11610164578063a22cb4651161013e578063a22cb4651461078f578063a45ba8e7146107af578063b071401b146107c4578063b88d4fde146107e457600080fd5b8063996517cf146107465780639e6a1d7d1461075c578063a0712d681461077c57600080fd5b80637ec4a6591461068d5780638da5cb5b146106ad57806394354fd0146106cb5780639579e688146106e157806395d89b4114610711578063961325211461072657600080fd5b806342842e0e116102855780635503a0e8116102235780636352211e116101fd5780636352211e1461062257806370a0823114610642578063715018a6146106625780637d4fb8191461067757600080fd5b80635503a0e8146105de5780635c975abb146105f357806362b99ad41461060d57600080fd5b806348161a691161025f57806348161a691461056c5780634fdd43cb1461057f57806350ed063c1461059f57806351830227146105bf57600080fd5b806342842e0e146104ff578063438b63001461051f57806344a0d68a1461054c57600080fd5b806313faede6116102f257806318160ddd116102cc57806318160ddd1461049257806323b872dd146104a75780633bbc52e5146104c75780633ccfd60b146104ea57600080fd5b806313faede61461042e57806316ba10e01461045257806316c38b3c1461047257600080fd5b806301ffc9a71461033a57806306fdde031461036f57806307c3ddf814610391578063081812fc146103b2578063095ea7b3146103ea5780630de0da991461040c575b600080fd5b34801561034657600080fd5b5061035a610355366004612554565b6109dc565b60405190151581526020015b60405180910390f35b34801561037b57600080fd5b50610384610a2e565b60405161036691906125c9565b34801561039d57600080fd5b5060155461035a906301000000900460ff1681565b3480156103be57600080fd5b506103d26103cd3660046125dc565b610ac0565b6040516001600160a01b039091168152602001610366565b3480156103f657600080fd5b5061040a610405366004612611565b610b04565b005b34801561041857600080fd5b5060155461035a90640100000000900460ff1681565b34801561043a57600080fd5b5061044460115481565b604051908152602001610366565b34801561045e57600080fd5b5061040a61046d3660046126c6565b610b92565b34801561047e57600080fd5b5061040a61048d36600461271e565b610bdc565b34801561049e57600080fd5b50610444610c19565b3480156104b357600080fd5b5061040a6104c2366004612739565b610c27565b3480156104d357600080fd5b5060155461035a9065010000000000900460ff1681565b3480156104f657600080fd5b5061040a610c32565b34801561050b57600080fd5b5061040a61051a366004612739565b610d2d565b34801561052b57600080fd5b5061053f61053a366004612775565b610d48565b6040516103669190612790565b34801561055857600080fd5b5061040a6105673660046125dc565b610e88565b61040a61057a3660046127d4565b610eb7565b34801561058b57600080fd5b5061040a61059a3660046126c6565b611100565b3480156105ab57600080fd5b5061040a6105ba36600461271e565b61113d565b3480156105cb57600080fd5b5060155461035a90610100900460ff1681565b3480156105ea57600080fd5b50610384611185565b3480156105ff57600080fd5b5060155461035a9060ff1681565b34801561061957600080fd5b50610384611213565b34801561062e57600080fd5b506103d261063d3660046125dc565b611220565b34801561064e57600080fd5b5061044461065d366004612775565b611232565b34801561066e57600080fd5b5061040a611280565b34801561068357600080fd5b50610444600a5481565b34801561069957600080fd5b5061040a6106a83660046126c6565b6112b6565b3480156106b957600080fd5b506008546001600160a01b03166103d2565b3480156106d757600080fd5b5061044460145481565b3480156106ed57600080fd5b5061035a6106fc366004612775565b600d6020526000908152604090205460ff1681565b34801561071d57600080fd5b506103846112f3565b34801561073257600080fd5b5060155461035a9062010000900460ff1681565b34801561075257600080fd5b5061044460135481565b34801561076857600080fd5b5061040a6107773660046125dc565b611302565b61040a61078a3660046125dc565b611331565b34801561079b57600080fd5b5061040a6107aa366004612852565b61142e565b3480156107bb57600080fd5b506103846114c4565b3480156107d057600080fd5b5061040a6107df3660046125dc565b6114d1565b3480156107f057600080fd5b5061040a6107ff366004612885565b611500565b34801561081057600080fd5b5061040a61081f3660046125dc565b61154b565b34801561083057600080fd5b5061040a61083f36600461271e565b61157a565b34801561085057600080fd5b5061038461085f3660046125dc565b6115c4565b34801561087057600080fd5b5061040a61087f36600461271e565b611736565b34801561089057600080fd5b5061044460125481565b3480156108a657600080fd5b5061035a6108b5366004612775565b600b6020526000908152604090205460ff1681565b3480156108d657600080fd5b5061040a6108e536600461271e565b61177c565b3480156108f657600080fd5b5061040a61090536600461271e565b6117c0565b34801561091657600080fd5b5061035a610925366004612900565b6001600160a01b03918216600090815260076020908152604080832093909416825291909152205460ff1690565b34801561095f57600080fd5b5061040a61096e3660046125dc565b61180c565b34801561097f57600080fd5b5061040a61098e36600461292a565b61183b565b34801561099f57600080fd5b5061040a6109ae366004612775565b6118e5565b61040a6109c13660046127d4565b611980565b3480156109d257600080fd5b50610444600c5481565b60006001600160e01b031982166380ac58cd60e01b1480610a0d57506001600160e01b03198216635b5e139f60e01b145b80610a2857506301ffc9a760e01b6001600160e01b03198316145b92915050565b606060028054610a3d9061294d565b80601f0160208091040260200160405190810160405280929190818152602001828054610a699061294d565b8015610ab65780601f10610a8b57610100808354040283529160200191610ab6565b820191906000526020600020905b815481529060010190602001808311610a9957829003601f168201915b5050505050905090565b6000610acb82611c03565b610ae8576040516333d1c03960e21b815260040160405180910390fd5b506000908152600660205260409020546001600160a01b031690565b6000610b0f82611220565b9050806001600160a01b0316836001600160a01b03161415610b445760405163250fdee360e21b815260040160405180910390fd5b336001600160a01b03821614801590610b645750610b628133610925565b155b15610b82576040516367d9dca160e11b815260040160405180910390fd5b610b8d838383611c3c565b505050565b6008546001600160a01b03163314610bc55760405162461bcd60e51b8152600401610bbc90612988565b60405180910390fd5b8051610bd890600f9060208401906124a5565b5050565b6008546001600160a01b03163314610c065760405162461bcd60e51b8152600401610bbc90612988565b6015805460ff1916911515919091179055565b600154600054036000190190565b610b8d838383611c98565b6008546001600160a01b03163314610c5c5760405162461bcd60e51b8152600401610bbc90612988565b60026009541415610caf5760405162461bcd60e51b815260206004820152601f60248201527f5265656e7472616e637947756172643a207265656e7472616e742063616c6c006044820152606401610bbc565b60026009556000610cc86008546001600160a01b031690565b6001600160a01b03164760405160006040518083038185875af1925050503d8060008114610d12576040519150601f19603f3d011682016040523d82523d6000602084013e610d17565b606091505b5050905080610d2557600080fd5b506001600955565b610b8d83838360405180602001604052806000815250611500565b60606000610d5583611232565b90506000816001600160401b03811115610d7157610d7161263b565b604051908082528060200260200182016040528015610d9a578160200160208202803683370190505b50905060016000805b8482108015610db3575060005483105b15610e7d57600083815260046020908152604091829020825160608101845290546001600160a01b0381168252600160a01b81046001600160401b031692820192909252600160e01b90910460ff16151591810182905290610e6a5780516001600160a01b031615610e2457805191505b876001600160a01b0316826001600160a01b03161415610e6a5783858481518110610e5157610e516129bd565b602090810291909101015282610e66816129e9565b9350505b83610e74816129e9565b94505050610da3565b509195945050505050565b6008546001600160a01b03163314610eb25760405162461bcd60e51b8152600401610bbc90612988565b601155565b82600081610ec3610c19565b610ecd9190612a04565b9050600082118015610ee157506014548211155b610efd5760405162461bcd60e51b8152600401610bbc90612a1c565b6012548111158015610f1157506013548111155b610f2d5760405162461bcd60e51b8152600401610bbc90612a51565b6015546301000000900460ff16610f865760405162461bcd60e51b815260206004820152601f60248201527f5468652046726565204d696e742073616c65206973206e6f74206f70656e21006044820152606401610bbc565b336000908152600d602052604090205460ff16156110025760405162461bcd60e51b815260206004820152603360248201527f596f757220616464726573732068617320616c726561647920636c61696d6564604482015272206974732046726565204c697374204e46542160681b6064820152608401610bbc565b6040516bffffffffffffffffffffffff193360601b16602082015260009060340160405160208183030381529060405280519060200120905061107c85858080602002602001604051908101604052809392919081815260200183836020028082843760009201919091525050600c549150849050611eac565b6110d45760405162461bcd60e51b815260206004820152602360248201527f5468697320697320616e20696e76616c69642046726565204c6973742070726f6044820152626f662160e81b6064820152608401610bbc565b336000818152600d60205260409020805460ff191660011790556110f89087611ec2565b505050505050565b6008546001600160a01b0316331461112a5760405162461bcd60e51b8152600401610bbc90612988565b8051610bd89060109060208401906124a5565b6008546001600160a01b031633146111675760405162461bcd60e51b8152600401610bbc90612988565b6015805491151563010000000263ff00000019909216919091179055565b600f80546111929061294d565b80601f01602080910402602001604051908101604052809291908181526020018280546111be9061294d565b801561120b5780601f106111e05761010080835404028352916020019161120b565b820191906000526020600020905b8154815290600101906020018083116111ee57829003601f168201915b505050505081565b600e80546111929061294d565b600061122b82611edc565b5192915050565b60006001600160a01b03821661125b576040516323d3ad8160e21b815260040160405180910390fd5b506001600160a01b03166000908152600560205260409020546001600160401b031690565b6008546001600160a01b031633146112aa5760405162461bcd60e51b8152600401610bbc90612988565b6112b46000612003565b565b6008546001600160a01b031633146112e05760405162461bcd60e51b8152600401610bbc90612988565b8051610bd890600e9060208401906124a5565b606060038054610a3d9061294d565b6008546001600160a01b0316331461132c5760405162461bcd60e51b8152600401610bbc90612988565b601355565b8060008161133d610c19565b6113479190612a04565b905060008211801561135b57506014548211155b6113775760405162461bcd60e51b8152600401610bbc90612a1c565b601254811115801561138b57506013548111155b6113a75760405162461bcd60e51b8152600401610bbc90612a51565b82806011546113b69190612abc565b3410156113d55760405162461bcd60e51b8152600401610bbc90612adb565b60155460ff161561141e5760405162461bcd60e51b81526020600482015260136024820152725468652073616c65206973207061757365642160681b6044820152606401610bbc565b6114283385611ec2565b50505050565b6001600160a01b0382163314156114585760405163b06307db60e01b815260040160405180910390fd5b3360008181526007602090815260408083206001600160a01b03871680855290835292819020805460ff191686151590811790915590519081529192917f17307eab39ab6107e8899845ad3d59bd9653f200f220920489ca2b5937696c31910160405180910390a35050565b601080546111929061294d565b6008546001600160a01b031633146114fb5760405162461bcd60e51b8152600401610bbc90612988565b601455565b61150b848484611c98565b6001600160a01b0383163b1515801561152d575061152b84848484612055565b155b15611428576040516368d2bf6b60e11b815260040160405180910390fd5b6008546001600160a01b031633146115755760405162461bcd60e51b8152600401610bbc90612988565b600c55565b6008546001600160a01b031633146115a45760405162461bcd60e51b8152600401610bbc90612988565b601580549115156401000000000264ff0000000019909216919091179055565b60606115cf82611c03565b6116365760405162461bcd60e51b815260206004820152603260248201527f4552433732314d657461646174613a2074686520746f6b656e207370656369666044820152711a595908191bd95cc81b9bdd08195e1a5cdd60721b6064820152608401610bbc565b601554610100900460ff166116d757601080546116529061294d565b80601f016020809104026020016040519081016040528092919081815260200182805461167e9061294d565b80156116cb5780601f106116a0576101008083540402835291602001916116cb565b820191906000526020600020905b8154815290600101906020018083116116ae57829003601f168201915b50505050509050919050565b60006116e161214d565b90506000815111611701576040518060200160405280600081525061172f565b8061170b8461215c565b600f60405160200161171f93929190612b30565b6040516020818303038152906040525b9392505050565b6008546001600160a01b031633146117605760405162461bcd60e51b8152600401610bbc90612988565b60158054911515620100000262ff000019909216919091179055565b6008546001600160a01b031633146117a65760405162461bcd60e51b8152600401610bbc90612988565b601580549115156101000261ff0019909216919091179055565b6008546001600160a01b031633146117ea5760405162461bcd60e51b8152600401610bbc90612988565b60158054911515650100000000000265ff000000000019909216919091179055565b6008546001600160a01b031633146118365760405162461bcd60e51b8152600401610bbc90612988565b600a55565b81600081611847610c19565b6118519190612a04565b905060008211801561186557506014548211155b6118815760405162461bcd60e51b8152600401610bbc90612a1c565b601254811115801561189557506013548111155b6118b15760405162461bcd60e51b8152600401610bbc90612a51565b6008546001600160a01b031633146118db5760405162461bcd60e51b8152600401610bbc90612988565b6114288385611ec2565b6008546001600160a01b0316331461190f5760405162461bcd60e51b8152600401610bbc90612988565b6001600160a01b0381166119745760405162461bcd60e51b815260206004820152602660248201527f4f776e61626c653a206e6577206f776e657220697320746865207a65726f206160448201526564647265737360d01b6064820152608401610bbc565b61197d81612003565b50565b8260008161198c610c19565b6119969190612a04565b90506000821180156119aa57506014548211155b6119c65760405162461bcd60e51b8152600401610bbc90612a1c565b60125481111580156119da57506013548111155b6119f65760405162461bcd60e51b8152600401610bbc90612a51565b8480601154611a059190612abc565b341015611a245760405162461bcd60e51b8152600401610bbc90612adb565b601554640100000000900460ff16611a885760405162461bcd60e51b815260206004820152602160248201527f54686520476f6c64204c6973742073616c65206973206e6f74206163746976656044820152602160f81b6064820152608401610bbc565b336000908152600b602052604090205460ff1615611b045760405162461bcd60e51b815260206004820152603360248201527f596f757220616464726573732068617320616c726561647920636c61696d65646044820152722069747320476f6c64204c697374204e46542160681b6064820152608401610bbc565b6040516bffffffffffffffffffffffff193360601b166020820152600090603401604051602081830303815290604052805190602001209050611b7e86868080602002602001604051908101604052809392919081815260200183836020028082843760009201919091525050600a549150849050611eac565b611bd65760405162461bcd60e51b815260206004820152602360248201527f5468697320697320616e20696e76616c696420476f6c64204c6973742070726f6044820152626f662160e81b6064820152608401610bbc565b336000818152600b60205260409020805460ff19166001179055611bfa9088611ec2565b50505050505050565b600081600111158015611c17575060005482105b8015610a28575050600090815260046020526040902054600160e01b900460ff161590565b60008281526006602052604080822080546001600160a01b0319166001600160a01b0387811691821790925591518593918516917f8c5be1e5ebec7d5bd14f71427d1e84f3dd0314c0f7b2291e5b200ac8c7c3b92591a4505050565b6000611ca382611edc565b80519091506000906001600160a01b0316336001600160a01b03161480611cd157508151611cd19033610925565b80611cec575033611ce184610ac0565b6001600160a01b0316145b905080611d0c57604051632ce44b5f60e11b815260040160405180910390fd5b846001600160a01b031682600001516001600160a01b031614611d415760405162a1148160e81b815260040160405180910390fd5b6001600160a01b038416611d6857604051633a954ecd60e21b815260040160405180910390fd5b611d786000848460000151611c3c565b6001600160a01b038581166000908152600560209081526040808320805467ffffffffffffffff198082166001600160401b0392831660001901831617909255898616808652838620805493841693831660019081018416949094179055898652600490945282852080546001600160e01b031916909417600160a01b429092169190910217909255908601808352912054909116611e6257600054811015611e6257825160008281526004602090815260409091208054918601516001600160401b0316600160a01b026001600160e01b03199092166001600160a01b03909316929092171790555b5082846001600160a01b0316866001600160a01b03167fddf252ad1be2c89b69c2b068fc378daa952ba7f163c4a11628f55a4df523b3ef60405160405180910390a45b5050505050565b600082611eb98584612259565b14949350505050565b610bd88282604051806020016040528060008152506122cd565b60408051606081018252600080825260208201819052918101919091528180600111158015611f0c575060005481105b15611fea57600081815260046020908152604091829020825160608101845290546001600160a01b0381168252600160a01b81046001600160401b031692820192909252600160e01b90910460ff16151591810182905290611fe85780516001600160a01b031615611f7f579392505050565b5060001901600081815260046020908152604091829020825160608101845290546001600160a01b038116808352600160a01b82046001600160401b031693830193909352600160e01b900460ff1615159281019290925215611fe3579392505050565b611f7f565b505b604051636f96cda160e11b815260040160405180910390fd5b600880546001600160a01b038381166001600160a01b0319831681179093556040519116919082907f8be0079c531659141344cd1fd0a4f28419497f9722a3daafe3b4186f6b6457e090600090a35050565b604051630a85bd0160e11b81526000906001600160a01b0385169063150b7a029061208a903390899088908890600401612bf4565b602060405180830381600087803b1580156120a457600080fd5b505af19250505080156120d4575060408051601f3d908101601f191682019092526120d191810190612c31565b60015b61212f573d808015612102576040519150601f19603f3d011682016040523d82523d6000602084013e612107565b606091505b508051612127576040516368d2bf6b60e11b815260040160405180910390fd5b805181602001fd5b6001600160e01b031916630a85bd0160e11b1490505b949350505050565b6060600e8054610a3d9061294d565b6060816121805750506040805180820190915260018152600360fc1b602082015290565b8160005b81156121aa5780612194816129e9565b91506121a39050600a83612c64565b9150612184565b6000816001600160401b038111156121c4576121c461263b565b6040519080825280601f01601f1916602001820160405280156121ee576020820181803683370190505b5090505b841561214557612203600183612c78565b9150612210600a86612c8f565b61221b906030612a04565b60f81b818381518110612230576122306129bd565b60200101906001600160f81b031916908160001a905350612252600a86612c64565b94506121f2565b600081815b84518110156122c557600085828151811061227b5761227b6129bd565b602002602001015190508083116122a157600083815260208290526040902092506122b2565b600081815260208490526040902092505b50806122bd816129e9565b91505061225e565b509392505050565b610b8d83838360016000546001600160a01b0385166122fe57604051622e076360e81b815260040160405180910390fd5b8361231c5760405163b562e8dd60e01b815260040160405180910390fd5b6001600160a01b038516600081815260056020908152604080832080546fffffffffffffffffffffffffffffffff1981166001600160401b038083168c0181169182176801000000000000000067ffffffffffffffff1990941690921783900481168c01811690920217909155858452600490925290912080546001600160e01b031916909217600160a01b4290921691909102179055808085018380156123cd57506001600160a01b0387163b15155b15612456575b60405182906001600160a01b038916906000907fddf252ad1be2c89b69c2b068fc378daa952ba7f163c4a11628f55a4df523b3ef908290a461241e6000888480600101955088612055565b61243b576040516368d2bf6b60e11b815260040160405180910390fd5b808214156123d357826000541461245157600080fd5b61249c565b5b6040516001830192906001600160a01b038916906000907fddf252ad1be2c89b69c2b068fc378daa952ba7f163c4a11628f55a4df523b3ef908290a480821415612457575b50600055611ea5565b8280546124b19061294d565b90600052602060002090601f0160209004810192826124d35760008555612519565b82601f106124ec57805160ff1916838001178555612519565b82800160010185558215612519579182015b828111156125195782518255916020019190600101906124fe565b50612525929150612529565b5090565b5b80821115612525576000815560010161252a565b6001600160e01b03198116811461197d57600080fd5b60006020828403121561256657600080fd5b813561172f8161253e565b60005b8381101561258c578181015183820152602001612574565b838111156114285750506000910152565b600081518084526125b5816020860160208601612571565b601f01601f19169290920160200192915050565b60208152600061172f602083018461259d565b6000602082840312156125ee57600080fd5b5035919050565b80356001600160a01b038116811461260c57600080fd5b919050565b6000806040838503121561262457600080fd5b61262d836125f5565b946020939093013593505050565b634e487b7160e01b600052604160045260246000fd5b60006001600160401b038084111561266b5761266b61263b565b604051601f8501601f19908116603f011681019082821181831017156126935761269361263b565b816040528093508581528686860111156126ac57600080fd5b858560208301376000602087830101525050509392505050565b6000602082840312156126d857600080fd5b81356001600160401b038111156126ee57600080fd5b8201601f810184136126ff57600080fd5b61214584823560208401612651565b8035801515811461260c57600080fd5b60006020828403121561273057600080fd5b61172f8261270e565b60008060006060848603121561274e57600080fd5b612757846125f5565b9250612765602085016125f5565b9150604084013590509250925092565b60006020828403121561278757600080fd5b61172f826125f5565b6020808252825182820181905260009190848201906040850190845b818110156127c8578351835292840192918401916001016127ac565b50909695505050505050565b6000806000604084860312156127e957600080fd5b8335925060208401356001600160401b038082111561280757600080fd5b818601915086601f83011261281b57600080fd5b81358181111561282a57600080fd5b8760208260051b850101111561283f57600080fd5b6020830194508093505050509250925092565b6000806040838503121561286557600080fd5b61286e836125f5565b915061287c6020840161270e565b90509250929050565b6000806000806080858703121561289b57600080fd5b6128a4856125f5565b93506128b2602086016125f5565b92506040850135915060608501356001600160401b038111156128d457600080fd5b8501601f810187136128e557600080fd5b6128f487823560208401612651565b91505092959194509250565b6000806040838503121561291357600080fd5b61291c836125f5565b915061287c602084016125f5565b6000806040838503121561293d57600080fd5b8235915061287c602084016125f5565b600181811c9082168061296157607f821691505b6020821081141561298257634e487b7160e01b600052602260045260246000fd5b50919050565b6020808252818101527f4f776e61626c653a2063616c6c6572206973206e6f7420746865206f776e6572604082015260600190565b634e487b7160e01b600052603260045260246000fd5b634e487b7160e01b600052601160045260246000fd5b60006000198214156129fd576129fd6129d3565b5060010190565b60008219821115612a1757612a176129d3565b500190565b6020808252818101527f596f752063616e206e6f74206d696e742074686973206d616e79206974656d73604082015260600190565b60208082526045908201527f546869732070757263686173652065786565647320746865206d6178696d756d60408201527f206e756d626572206f66204e46545320616c6c6f77656420666f7220746869736060820152642073616c6560d81b608082015260a00190565b6000816000190483118215151615612ad657612ad66129d3565b500290565b60208082526035908201527f596f7520646964206e6f742073656e6420656e6f7567682045544820746f20636040820152746f6d706c657465207468697320707572636861736560581b606082015260800190565b600084516020612b438285838a01612571565b855191840191612b568184848a01612571565b8554920191600090600181811c9080831680612b7357607f831692505b858310811415612b9157634e487b7160e01b85526022600452602485fd5b808015612ba55760018114612bb657612be3565b60ff19851688528388019550612be3565b60008b81526020902060005b85811015612bdb5781548a820152908401908801612bc2565b505083880195505b50939b9a5050505050505050505050565b6001600160a01b0385811682528416602082015260408101839052608060608201819052600090612c279083018461259d565b9695505050505050565b600060208284031215612c4357600080fd5b815161172f8161253e565b634e487b7160e01b600052601260045260246000fd5b600082612c7357612c73612c4e565b500490565b600082821015612c8a57612c8a6129d3565b500390565b600082612c9e57612c9e612c4e565b50069056fea26469706673582212200f19a4d0498c128a8e0f6578186fed0abff6c8f8fabd2e1d521528887adc96cd64736f6c634300080900334f776e61626c653a2063616c6c6572206973206e6f7420746865206f776e6572",
  "linkReferences": {},
  "deployedLinkReferences": {}
}