{
  "_format": "hh-sol-artifact-1",
  "contractName": "SheBloomsCollection",
  "sourceName": "contracts/SheBloomsCollection.sol",
  "abi": [
    {
      "inputs": [
        {
          "internalType": "string",
          "name": "_tokenName",
          "type": "string"
        },
        {
          "internalType": "string",
          "name": "_tokenSymbol",
          "type": "string"
        },
        {
          "internalType": "uint256",
          "name": "_cost",
          "type": "uint256"
        },
        {
          "internalType": "uint256",
          "name": "_maxSupply",
          "type": "uint256"
        },
        {
          "internalType": "uint256",
          "name": "_maxMintAmountPerTx",
          "type": "uint256"
        },
        {
          "internalType": "string",
          "name": "_hiddenMetadataUri",
          "type": "string"
        }
      ],
      "stateMutability": "nonpayable",
      "type": "constructor"
    },
    {
      "inputs": [],
      "name": "ApprovalCallerNotOwnerNorApproved",
      "type": "error"
    },
    {
      "inputs": [],
      "name": "ApprovalQueryForNonexistentToken",
      "type": "error"
    },
    {
      "inputs": [],
      "name": "ApprovalToCurrentOwner",
      "type": "error"
    },
    {
      "inputs": [],
      "name": "ApproveToCaller",
      "type": "error"
    },
    {
      "inputs": [],
      "name": "BalanceQueryForZeroAddress",
      "type": "error"
    },
    {
      "inputs": [],
      "name": "MintToZeroAddress",
      "type": "error"
    },
    {
      "inputs": [],
      "name": "MintZeroQuantity",
      "type": "error"
    },
    {
      "inputs": [],
      "name": "OwnerQueryForNonexistentToken",
      "type": "error"
    },
    {
      "inputs": [],
      "name": "TransferCallerNotOwnerNorApproved",
      "type": "error"
    },
    {
      "inputs": [],
      "name": "TransferFromIncorrectOwner",
      "type": "error"
    },
    {
      "inputs": [],
      "name": "TransferToNonERC721ReceiverImplementer",
      "type": "error"
    },
    {
      "inputs": [],
      "name": "TransferToZeroAddress",
      "type": "error"
    },
    {
      "anonymous": false,
      "inputs": [
        {
          "indexed": true,
          "internalType": "address",
          "name": "owner",
          "type": "address"
        },
        {
          "indexed": true,
          "internalType": "address",
          "name": "approved",
          "type": "address"
        },
        {
          "indexed": true,
          "internalType": "uint256",
          "name": "tokenId",
          "type": "uint256"
        }
      ],
      "name": "Approval",
      "type": "event"
    },
    {
      "anonymous": false,
      "inputs": [
        {
          "indexed": true,
          "internalType": "address",
          "name": "owner",
          "type": "address"
        },
        {
          "indexed": true,
          "internalType": "address",
          "name": "operator",
          "type": "address"
        },
        {
          "indexed": false,
          "internalType": "bool",
          "name": "approved",
          "type": "bool"
        }
      ],
      "name": "ApprovalForAll",
      "type": "event"
    },
    {
      "anonymous": false,
      "inputs": [
        {
          "indexed": true,
          "internalType": "address",
          "name": "previousOwner",
          "type": "address"
        },
        {
          "indexed": true,
          "internalType": "address",
          "name": "newOwner",
          "type": "address"
        }
      ],
      "name": "OwnershipTransferred",
      "type": "event"
    },
    {
      "anonymous": false,
      "inputs": [
        {
          "indexed": true,
          "internalType": "address",
          "name": "from",
          "type": "address"
        },
        {
          "indexed": true,
          "internalType": "address",
          "name": "to",
          "type": "address"
        },
        {
          "indexed": true,
          "internalType": "uint256",
          "name": "tokenId",
          "type": "uint256"
        }
      ],
      "name": "Transfer",
      "type": "event"
    },
    {
      "inputs": [
        {
          "internalType": "address",
          "name": "to",
          "type": "address"
        },
        {
          "internalType": "uint256",
          "name": "tokenId",
          "type": "uint256"
        }
      ],
      "name": "approve",
      "outputs": [],
      "stateMutability": "nonpayable",
      "type": "function"
    },
    {
      "inputs": [
        {
          "internalType": "address",
          "name": "owner",
          "type": "address"
        }
      ],
      "name": "balanceOf",
      "outputs": [
        {
          "internalType": "uint256",
          "name": "",
          "type": "uint256"
        }
      ],
      "stateMutability": "view",
      "type": "function"
    },
    {
      "inputs": [],
      "name": "cost",
      "outputs": [
        {
          "internalType": "uint256",
          "name": "",
          "type": "uint256"
        }
      ],
      "stateMutability": "view",
      "type": "function"
    },
    {
      "inputs": [
        {
          "internalType": "address",
          "name": "",
          "type": "address"
        }
      ],
      "name": "freeListClaimed",
      "outputs": [
        {
          "internalType": "bool",
          "name": "",
          "type": "bool"
        }
      ],
      "stateMutability": "view",
      "type": "function"
    },
    {
      "inputs": [],
      "name": "freeListMerkleRoot",
      "outputs": [
        {
          "internalType": "bytes32",
          "name": "",
          "type": "bytes32"
        }
      ],
      "stateMutability": "view",
      "type": "function"
    },
    {
      "inputs": [
        {
          "internalType": "uint256",
          "name": "_mintAmount",
          "type": "uint256"
        },
        {
          "internalType": "bytes32[]",
          "name": "_merkleProof",
          "type": "bytes32[]"
        }
      ],
      "name": "freeListMint",
      "outputs": [],
      "stateMutability": "payable",
      "type": "function"
    },
    {
      "inputs": [],
      "name": "freeListMintEnabled",
      "outputs": [
        {
          "internalType": "bool",
          "name": "",
          "type": "bool"
        }
      ],
      "stateMutability": "view",
      "type": "function"
    },
    {
      "inputs": [
        {
          "internalType": "uint256",
          "name": "tokenId",
          "type": "uint256"
        }
      ],
      "name": "getApproved",
      "outputs": [
        {
          "internalType": "address",
          "name": "",
          "type": "address"
        }
      ],
      "stateMutability": "view",
      "type": "function"
    },
    {
      "inputs": [
        {
          "internalType": "address",
          "name": "",
          "type": "address"
        }
      ],
      "name": "goldListClaimed",
      "outputs": [
        {
          "internalType": "bool",
          "name": "",
          "type": "bool"
        }
      ],
      "stateMutability": "view",
      "type": "function"
    },
    {
      "inputs": [],
      "name": "goldListMerkleRoot",
      "outputs": [
        {
          "internalType": "bytes32",
          "name": "",
          "type": "bytes32"
        }
      ],
      "stateMutability": "view",
      "type": "function"
    },
    {
      "inputs": [
        {
          "internalType": "uint256",
          "name": "_mintAmount",
          "type": "uint256"
        },
        {
          "internalType": "bytes32[]",
          "name": "_merkleProof",
          "type": "bytes32[]"
        }
      ],
      "name": "goldListMint",
      "outputs": [],
      "stateMutability": "payable",
      "type": "function"
    },
    {
      "inputs": [],
      "name": "goldListMintEnabled",
      "outputs": [
        {
          "internalType": "bool",
          "name": "",
          "type": "bool"
        }
      ],
      "stateMutability": "view",
      "type": "function"
    },
    {
      "inputs": [],
      "name": "hiddenMetadataUri",
      "outputs": [
        {
          "internalType": "string",
          "name": "",
          "type": "string"
        }
      ],
      "stateMutability": "view",
      "type": "function"
    },
    {
      "inputs": [
        {
          "internalType": "address",
          "name": "owner",
          "type": "address"
        },
        {
          "internalType": "address",
          "name": "operator",
          "type": "address"
        }
      ],
      "name": "isApprovedForAll",
      "outputs": [
        {
          "internalType": "bool",
          "name": "",
          "type": "bool"
        }
      ],
      "stateMutability": "view",
      "type": "function"
    },
    {
      "inputs": [],
      "name": "maxMintAmountPerTx",
      "outputs": [
        {
          "internalType": "uint256",
          "name": "",
          "type": "uint256"
        }
      ],
      "stateMutability": "view",
      "type": "function"
    },
    {
      "inputs": [],
      "name": "maxSupply",
      "outputs": [
        {
          "internalType": "uint256",
          "name": "",
          "type": "uint256"
        }
      ],
      "stateMutability": "view",
      "type": "function"
    },
    {
      "inputs": [
        {
          "internalType": "uint256",
          "name": "_mintAmount",
          "type": "uint256"
        }
      ],
      "name": "mint",
      "outputs": [],
      "stateMutability": "payable",
      "type": "function"
    },
    {
      "inputs": [
        {
          "internalType": "uint256",
          "name": "_mintAmount",
          "type": "uint256"
        },
        {
          "internalType": "address",
          "name": "_receiver",
          "type": "address"
        }
      ],
      "name": "mintForAddress",
      "outputs": [],
      "stateMutability": "nonpayable",
      "type": "function"
    },
    {
      "inputs": [],
      "name": "name",
      "outputs": [
        {
          "internalType": "string",
          "name": "",
          "type": "string"
        }
      ],
      "stateMutability": "view",
      "type": "function"
    },
    {
      "inputs": [],
      "name": "owner",
      "outputs": [
        {
          "internalType": "address",
          "name": "",
          "type": "address"
        }
      ],
      "stateMutability": "view",
      "type": "function"
    },
    {
      "inputs": [
        {
          "internalType": "uint256",
          "name": "tokenId",
          "type": "uint256"
        }
      ],
      "name": "ownerOf",
      "outputs": [
        {
          "internalType": "address",
          "name": "",
          "type": "address"
        }
      ],
      "stateMutability": "view",
      "type": "function"
    },
    {
      "inputs": [],
      "name": "paused",
      "outputs": [
        {
          "internalType": "bool",
          "name": "",
          "type": "bool"
        }
      ],
      "stateMutability": "view",
      "type": "function"
    },
    {
      "inputs": [],
      "name": "preSaleMintEnabled",
      "outputs": [
        {
          "internalType": "bool",
          "name": "",
          "type": "bool"
        }
      ],
      "stateMutability": "view",
      "type": "function"
    },
    {
      "inputs": [],
      "name": "released",
      "outputs": [
        {
          "internalType": "bool",
          "name": "",
          "type": "bool"
        }
      ],
      "stateMutability": "view",
      "type": "function"
    },
    {
      "inputs": [],
      "name": "renounceOwnership",
      "outputs": [],
      "stateMutability": "nonpayable",
      "type": "function"
    },
    {
      "inputs": [],
      "name": "revealed",
      "outputs": [
        {
          "internalType": "bool",
          "name": "",
          "type": "bool"
        }
      ],
      "stateMutability": "view",
      "type": "function"
    },
    {
      "inputs": [
        {
          "internalType": "address",
          "name": "from",
          "type": "address"
        },
        {
          "internalType": "address",
          "name": "to",
          "type": "address"
        },
        {
          "internalType": "uint256",
          "name": "tokenId",
          "type": "uint256"
        }
      ],
      "name": "safeTransferFrom",
      "outputs": [],
      "stateMutability": "nonpayable",
      "type": "function"
    },
    {
      "inputs": [
        {
          "internalType": "address",
          "name": "from",
          "type": "address"
        },
        {
          "internalType": "address",
          "name": "to",
          "type": "address"
        },
        {
          "internalType": "uint256",
          "name": "tokenId",
          "type": "uint256"
        },
        {
          "internalType": "bytes",
          "name": "_data",
          "type": "bytes"
        }
      ],
      "name": "safeTransferFrom",
      "outputs": [],
      "stateMutability": "nonpayable",
      "type": "function"
    },
    {
      "inputs": [
        {
          "internalType": "address",
          "name": "operator",
          "type": "address"
        },
        {
          "internalType": "bool",
          "name": "approved",
          "type": "bool"
        }
      ],
      "name": "setApprovalForAll",
      "outputs": [],
      "stateMutability": "nonpayable",
      "type": "function"
    },
    {
      "inputs": [
        {
          "internalType": "uint256",
          "name": "_cost",
          "type": "uint256"
        }
      ],
      "name": "setCost",
      "outputs": [],
      "stateMutability": "nonpayable",
      "type": "function"
    },
    {
      "inputs": [
        {
          "internalType": "bytes32",
          "name": "_merkleRoot",
          "type": "bytes32"
        }
      ],
      "name": "setFreeListMerkleRoot",
      "outputs": [],
      "stateMutability": "nonpayable",
      "type": "function"
    },
    {
      "inputs": [
        {
          "internalType": "bool",
          "name": "_state",
          "type": "bool"
        }
      ],
      "name": "setFreeListMintEnabled",
      "outputs": [],
      "stateMutability": "nonpayable",
      "type": "function"
    },
    {
      "inputs": [
        {
          "internalType": "bytes32",
          "name": "_merkleRoot",
          "type": "bytes32"
        }
      ],
      "name": "setGoldListMerkleRoot",
      "outputs": [],
      "stateMutability": "nonpayable",
      "type": "function"
    },
    {
      "inputs": [
        {
          "internalType": "bool",
          "name": "_state",
          "type": "bool"
        }
      ],
      "name": "setGoldListMintEnabled",
      "outputs": [],
      "stateMutability": "nonpayable",
      "type": "function"
    },
    {
      "inputs": [
        {
          "internalType": "string",
          "name": "_hiddenMetadataUri",
          "type": "string"
        }
      ],
      "name": "setHiddenMetadataUri",
      "outputs": [],
      "stateMutability": "nonpayable",
      "type": "function"
    },
    {
      "inputs": [
        {
          "internalType": "uint256",
          "name": "_maxMintAmountPerTx",
          "type": "uint256"
        }
      ],
      "name": "setMaxMintAmountPerTx",
      "outputs": [],
      "stateMutability": "nonpayable",
      "type": "function"
    },
    {
      "inputs": [
        {
          "internalType": "bool",
          "name": "_state",
          "type": "bool"
        }
      ],
      "name": "setPaused",
      "outputs": [],
      "stateMutability": "nonpayable",
      "type": "function"
    },
    {
      "inputs": [
        {
          "internalType": "bool",
          "name": "_state",
          "type": "bool"
        }
      ],
      "name": "setPreSaleMintEnabled",
      "outputs": [],
      "stateMutability": "nonpayable",
      "type": "function"
    },
    {
      "inputs": [
        {
          "internalType": "bool",
          "name": "_state",
          "type": "bool"
        }
      ],
      "name": "setReleased",
      "outputs": [],
      "stateMutability": "nonpayable",
      "type": "function"
    },
    {
      "inputs": [
        {
          "internalType": "bool",
          "name": "_state",
          "type": "bool"
        }
      ],
      "name": "setRevealed",
      "outputs": [],
      "stateMutability": "nonpayable",
      "type": "function"
    },
    {
      "inputs": [
        {
          "internalType": "string",
          "name": "_uriPrefix",
          "type": "string"
        }
      ],
      "name": "setUriPrefix",
      "outputs": [],
      "stateMutability": "nonpayable",
      "type": "function"
    },
    {
      "inputs": [
        {
          "internalType": "string",
          "name": "_uriSuffix",
          "type": "string"
        }
      ],
      "name": "setUriSuffix",
      "outputs": [],
      "stateMutability": "nonpayable",
      "type": "function"
    },
    {
      "inputs": [
        {
          "internalType": "bytes4",
          "name": "interfaceId",
          "type": "bytes4"
        }
      ],
      "name": "supportsInterface",
      "outputs": [
        {
          "internalType": "bool",
          "name": "",
          "type": "bool"
        }
      ],
      "stateMutability": "view",
      "type": "function"
    },
    {
      "inputs": [],
      "name": "symbol",
      "outputs": [
        {
          "internalType": "string",
          "name": "",
          "type": "string"
        }
      ],
      "stateMutability": "view",
      "type": "function"
    },
    {
      "inputs": [
        {
          "internalType": "uint256",
          "name": "_tokenId",
          "type": "uint256"
        }
      ],
      "name": "tokenURI",
      "outputs": [
        {
          "internalType": "string",
          "name": "",
          "type": "string"
        }
      ],
      "stateMutability": "view",
      "type": "function"
    },
    {
      "inputs": [],
      "name": "totalSupply",
      "outputs": [
        {
          "internalType": "uint256",
          "name": "",
          "type": "uint256"
        }
      ],
      "stateMutability": "view",
      "type": "function"
    },
    {
      "inputs": [
        {
          "internalType": "address",
          "name": "from",
          "type": "address"
        },
        {
          "internalType": "address",
          "name": "to",
          "type": "address"
        },
        {
          "internalType": "uint256",
          "name": "tokenId",
          "type": "uint256"
        }
      ],
      "name": "transferFrom",
      "outputs": [],
      "stateMutability": "nonpayable",
      "type": "function"
    },
    {
      "inputs": [
        {
          "internalType": "address",
          "name": "newOwner",
          "type": "address"
        }
      ],
      "name": "transferOwnership",
      "outputs": [],
      "stateMutability": "nonpayable",
      "type": "function"
    },
    {
      "inputs": [],
      "name": "uriPrefix",
      "outputs": [
        {
          "internalType": "string",
          "name": "",
          "type": "string"
        }
      ],
      "stateMutability": "view",
      "type": "function"
    },
    {
      "inputs": [],
      "name": "uriSuffix",
      "outputs": [
        {
          "internalType": "string",
          "name": "",
          "type": "string"
        }
      ],
      "stateMutability": "view",
      "type": "function"
    },
    {
      "inputs": [
        {
          "internalType": "address",
          "name": "_owner",
          "type": "address"
        }
      ],
      "name": "walletOfOwner",
      "outputs": [
        {
          "internalType": "uint256[]",
          "name": "",
          "type": "uint256[]"
        }
      ],
      "stateMutability": "view",
      "type": "function"
    },
    {
      "inputs": [],
      "name": "withdraw",
      "outputs": [],
      "stateMutability": "nonpayable",
      "type": "function"
    }
  ],
  "bytecode": "0x60a06040819052600060808190526200001b91600e9162000260565b5060408051808201909152600580825264173539b7b760d91b60209092019182526200004a91600f9162000260565b506014805465ffffffffffff191660011790553480156200006a57600080fd5b50604051620030a6380380620030a68339810160408190526200008d91620003d3565b855186908690620000a690600290602085019062000260565b508051620000bc90600390602084019062000260565b5050600160005550620000cf3362000106565b6001600955620000df8462000158565b6012839055620000ef82620001ac565b620000fa81620001fc565b505050505050620004bd565b600880546001600160a01b038381166001600160a01b0319831681179093556040519116919082907f8be0079c531659141344cd1fd0a4f28419497f9722a3daafe3b4186f6b6457e090600090a35050565b6008546001600160a01b03163314620001a75760405162461bcd60e51b815260206004820181905260248201526000805160206200308683398151915260448201526064015b60405180910390fd5b601155565b6008546001600160a01b03163314620001f75760405162461bcd60e51b815260206004820181905260248201526000805160206200308683398151915260448201526064016200019e565b601355565b6008546001600160a01b03163314620002475760405162461bcd60e51b815260206004820181905260248201526000805160206200308683398151915260448201526064016200019e565b80516200025c90601090602084019062000260565b5050565b8280546200026e9062000480565b90600052602060002090601f016020900481019282620002925760008555620002dd565b82601f10620002ad57805160ff1916838001178555620002dd565b82800160010185558215620002dd579182015b82811115620002dd578251825591602001919060010190620002c0565b50620002eb929150620002ef565b5090565b5b80821115620002eb5760008155600101620002f0565b634e487b7160e01b600052604160045260246000fd5b600082601f8301126200032e57600080fd5b81516001600160401b03808211156200034b576200034b62000306565b604051601f8301601f19908116603f0116810190828211818310171562000376576200037662000306565b816040528381526020925086838588010111156200039357600080fd5b600091505b83821015620003b7578582018301518183018401529082019062000398565b83821115620003c95760008385830101525b9695505050505050565b60008060008060008060c08789031215620003ed57600080fd5b86516001600160401b03808211156200040557600080fd5b620004138a838b016200031c565b975060208901519150808211156200042a57600080fd5b620004388a838b016200031c565b965060408901519550606089015194506080890151935060a08901519150808211156200046457600080fd5b506200047389828a016200031c565b9150509295509295509295565b600181811c908216806200049557607f821691505b60208210811415620004b757634e487b7160e01b600052602260045260246000fd5b50919050565b612bb980620004cd6000396000f3fe6080604052600436106102ff5760003560e01c80637d4fb81911610190578063c2840944116100dc578063e872493711610095578063efbd73f41161006f578063efbd73f414610907578063f2fde38b14610927578063f4465dbd14610947578063fb0220c21461095a57600080fd5b8063e87249371461087e578063e985e9c51461089e578063ef351f6c146108e757600080fd5b8063c2840944146107b8578063c87b56dd146107d8578063d1fea3d5146107f8578063d5abeb0114610818578063d612620b1461082e578063e0a808531461085e57600080fd5b80639613252111610149578063a45ba8e711610123578063a45ba8e714610743578063b071401b14610758578063b88d4fde14610778578063c280c88e1461079857600080fd5b806396132521146106f0578063a0712d6814610710578063a22cb4651461072357600080fd5b80637d4fb819146106415780637ec4a659146106575780638da5cb5b1461067757806394354fd0146106955780639579e688146106ab57806395d89b41146106db57600080fd5b806342842e0e1161024f578063518302271161020857806362b99ad4116101e257806362b99ad4146105d75780636352211e146105ec57806370a082311461060c578063715018a61461062c57600080fd5b806351830227146105895780635503a0e8146105a85780635c975abb146105bd57600080fd5b806342842e0e146104c9578063438b6300146104e957806344a0d68a1461051657806348161a69146105365780634fdd43cb1461054957806350ed063c1461056957600080fd5b806313faede6116102bc57806318160ddd1161029657806318160ddd1461045c57806323b872dd146104715780633bbc52e5146104915780633ccfd60b146104b457600080fd5b806313faede6146103f857806316ba10e01461041c57806316c38b3c1461043c57600080fd5b806301ffc9a71461030457806306fdde031461033957806307c3ddf81461035b578063081812fc1461037c578063095ea7b3146103b45780630de0da99146103d6575b600080fd5b34801561031057600080fd5b5061032461031f366004612468565b610970565b60405190151581526020015b60405180910390f35b34801561034557600080fd5b5061034e6109c2565b60405161033091906124dd565b34801561036757600080fd5b50601454610324906301000000900460ff1681565b34801561038857600080fd5b5061039c6103973660046124f0565b610a54565b6040516001600160a01b039091168152602001610330565b3480156103c057600080fd5b506103d46103cf366004612525565b610a98565b005b3480156103e257600080fd5b5060145461032490640100000000900460ff1681565b34801561040457600080fd5b5061040e60115481565b604051908152602001610330565b34801561042857600080fd5b506103d46104373660046125da565b610b26565b34801561044857600080fd5b506103d4610457366004612632565b610b70565b34801561046857600080fd5b5061040e610bad565b34801561047d57600080fd5b506103d461048c36600461264d565b610bbb565b34801561049d57600080fd5b506014546103249065010000000000900460ff1681565b3480156104c057600080fd5b506103d4610bc6565b3480156104d557600080fd5b506103d46104e436600461264d565b610cc1565b3480156104f557600080fd5b50610509610504366004612689565b610cdc565b60405161033091906126a4565b34801561052257600080fd5b506103d46105313660046124f0565b610e1c565b6103d46105443660046126e8565b610e4b565b34801561055557600080fd5b506103d46105643660046125da565b611080565b34801561057557600080fd5b506103d4610584366004612632565b6110bd565b34801561059557600080fd5b5060145461032490610100900460ff1681565b3480156105b457600080fd5b5061034e611105565b3480156105c957600080fd5b506014546103249060ff1681565b3480156105e357600080fd5b5061034e611193565b3480156105f857600080fd5b5061039c6106073660046124f0565b6111a0565b34801561061857600080fd5b5061040e610627366004612689565b6111b2565b34801561063857600080fd5b506103d4611200565b34801561064d57600080fd5b5061040e600a5481565b34801561066357600080fd5b506103d46106723660046125da565b611236565b34801561068357600080fd5b506008546001600160a01b031661039c565b3480156106a157600080fd5b5061040e60135481565b3480156106b757600080fd5b506103246106c6366004612689565b600d6020526000908152604090205460ff1681565b3480156106e757600080fd5b5061034e611273565b3480156106fc57600080fd5b506014546103249062010000900460ff1681565b6103d461071e3660046124f0565b611282565b34801561072f57600080fd5b506103d461073e366004612766565b611366565b34801561074f57600080fd5b5061034e6113fc565b34801561076457600080fd5b506103d46107733660046124f0565b611409565b34801561078457600080fd5b506103d4610793366004612799565b611438565b3480156107a457600080fd5b506103d46107b33660046124f0565b611489565b3480156107c457600080fd5b506103d46107d3366004612632565b6114b8565b3480156107e457600080fd5b5061034e6107f33660046124f0565b611502565b34801561080457600080fd5b506103d4610813366004612632565b611674565b34801561082457600080fd5b5061040e60125481565b34801561083a57600080fd5b50610324610849366004612689565b600b6020526000908152604090205460ff1681565b34801561086a57600080fd5b506103d4610879366004612632565b6116ba565b34801561088a57600080fd5b506103d4610899366004612632565b6116fe565b3480156108aa57600080fd5b506103246108b9366004612814565b6001600160a01b03918216600090815260076020908152604080832093909416825291909152205460ff1690565b3480156108f357600080fd5b506103d46109023660046124f0565b61174a565b34801561091357600080fd5b506103d461092236600461283e565b611779565b34801561093357600080fd5b506103d4610942366004612689565b611810565b6103d46109553660046126e8565b6118ab565b34801561096657600080fd5b5061040e600c5481565b60006001600160e01b031982166380ac58cd60e01b14806109a157506001600160e01b03198216635b5e139f60e01b145b806109bc57506301ffc9a760e01b6001600160e01b03198316145b92915050565b6060600280546109d190612861565b80601f01602080910402602001604051908101604052809291908181526020018280546109fd90612861565b8015610a4a5780601f10610a1f57610100808354040283529160200191610a4a565b820191906000526020600020905b815481529060010190602001808311610a2d57829003601f168201915b5050505050905090565b6000610a5f82611b1a565b610a7c576040516333d1c03960e21b815260040160405180910390fd5b506000908152600660205260409020546001600160a01b031690565b6000610aa3826111a0565b9050806001600160a01b0316836001600160a01b03161415610ad85760405163250fdee360e21b815260040160405180910390fd5b336001600160a01b03821614801590610af85750610af681336108b9565b155b15610b16576040516367d9dca160e11b815260040160405180910390fd5b610b21838383611b53565b505050565b6008546001600160a01b03163314610b595760405162461bcd60e51b8152600401610b509061289c565b60405180910390fd5b8051610b6c90600f9060208401906123b9565b5050565b6008546001600160a01b03163314610b9a5760405162461bcd60e51b8152600401610b509061289c565b6014805460ff1916911515919091179055565b600154600054036000190190565b610b21838383611baf565b6008546001600160a01b03163314610bf05760405162461bcd60e51b8152600401610b509061289c565b60026009541415610c435760405162461bcd60e51b815260206004820152601f60248201527f5265656e7472616e637947756172643a207265656e7472616e742063616c6c006044820152606401610b50565b60026009556000610c5c6008546001600160a01b031690565b6001600160a01b03164760405160006040518083038185875af1925050503d8060008114610ca6576040519150601f19603f3d011682016040523d82523d6000602084013e610cab565b606091505b5050905080610cb957600080fd5b506001600955565b610b2183838360405180602001604052806000815250611438565b60606000610ce9836111b2565b90506000816001600160401b03811115610d0557610d0561254f565b604051908082528060200260200182016040528015610d2e578160200160208202803683370190505b50905060016000805b8482108015610d47575060005483105b15610e1157600083815260046020908152604091829020825160608101845290546001600160a01b0381168252600160a01b81046001600160401b031692820192909252600160e01b90910460ff16151591810182905290610dfe5780516001600160a01b031615610db857805191505b876001600160a01b0316826001600160a01b03161415610dfe5783858481518110610de557610de56128d1565b602090810291909101015282610dfa816128fd565b9350505b83610e08816128fd565b94505050610d37565b509195945050505050565b6008546001600160a01b03163314610e465760405162461bcd60e51b8152600401610b509061289c565b601155565b82600081118015610e5e57506013548111155b610e7a5760405162461bcd60e51b8152600401610b5090612918565b60125481610e86610bad565b610e90919061294d565b1115610eae5760405162461bcd60e51b8152600401610b5090612965565b6014546301000000900460ff16610f075760405162461bcd60e51b815260206004820152601f60248201527f5468652046726565204d696e742073616c65206973206e6f74206f70656e21006044820152606401610b50565b336000908152600d602052604090205460ff1615610f835760405162461bcd60e51b815260206004820152603360248201527f596f757220616464726573732068617320616c726561647920636c61696d6564604482015272206974732046726565204c697374204e46542160681b6064820152608401610b50565b6040516bffffffffffffffffffffffff193360601b166020820152600090603401604051602081830303815290604052805190602001209050610ffd84848080602002602001604051908101604052809392919081815260200183836020028082843760009201919091525050600c549150849050611dc0565b6110555760405162461bcd60e51b815260206004820152602360248201527f5468697320697320616e20696e76616c69642046726565204c6973742070726f6044820152626f662160e81b6064820152608401610b50565b336000818152600d60205260409020805460ff191660011790556110799086611dd6565b5050505050565b6008546001600160a01b031633146110aa5760405162461bcd60e51b8152600401610b509061289c565b8051610b6c9060109060208401906123b9565b6008546001600160a01b031633146110e75760405162461bcd60e51b8152600401610b509061289c565b6014805491151563010000000263ff00000019909216919091179055565b600f805461111290612861565b80601f016020809104026020016040519081016040528092919081815260200182805461113e90612861565b801561118b5780601f106111605761010080835404028352916020019161118b565b820191906000526020600020905b81548152906001019060200180831161116e57829003601f168201915b505050505081565b600e805461111290612861565b60006111ab82611df0565b5192915050565b60006001600160a01b0382166111db576040516323d3ad8160e21b815260040160405180910390fd5b506001600160a01b03166000908152600560205260409020546001600160401b031690565b6008546001600160a01b0316331461122a5760405162461bcd60e51b8152600401610b509061289c565b6112346000611f17565b565b6008546001600160a01b031633146112605760405162461bcd60e51b8152600401610b509061289c565b8051610b6c90600e9060208401906123b9565b6060600380546109d190612861565b8060008111801561129557506013548111155b6112b15760405162461bcd60e51b8152600401610b5090612918565b601254816112bd610bad565b6112c7919061294d565b11156112e55760405162461bcd60e51b8152600401610b5090612965565b81806011546112f4919061299c565b3410156113135760405162461bcd60e51b8152600401610b50906129bb565b60145460ff161561135c5760405162461bcd60e51b81526020600482015260136024820152725468652073616c65206973207061757365642160681b6044820152606401610b50565b610b213384611dd6565b6001600160a01b0382163314156113905760405163b06307db60e01b815260040160405180910390fd5b3360008181526007602090815260408083206001600160a01b03871680855290835292819020805460ff191686151590811790915590519081529192917f17307eab39ab6107e8899845ad3d59bd9653f200f220920489ca2b5937696c31910160405180910390a35050565b6010805461111290612861565b6008546001600160a01b031633146114335760405162461bcd60e51b8152600401610b509061289c565b601355565b611443848484611baf565b6001600160a01b0383163b15158015611465575061146384848484611f69565b155b15611483576040516368d2bf6b60e11b815260040160405180910390fd5b50505050565b6008546001600160a01b031633146114b35760405162461bcd60e51b8152600401610b509061289c565b600c55565b6008546001600160a01b031633146114e25760405162461bcd60e51b8152600401610b509061289c565b601480549115156401000000000264ff0000000019909216919091179055565b606061150d82611b1a565b6115745760405162461bcd60e51b815260206004820152603260248201527f4552433732314d657461646174613a2074686520746f6b656e207370656369666044820152711a595908191bd95cc81b9bdd08195e1a5cdd60721b6064820152608401610b50565b601454610100900460ff16611615576010805461159090612861565b80601f01602080910402602001604051908101604052809291908181526020018280546115bc90612861565b80156116095780601f106115de57610100808354040283529160200191611609565b820191906000526020600020905b8154815290600101906020018083116115ec57829003601f168201915b50505050509050919050565b600061161f612061565b9050600081511161163f576040518060200160405280600081525061166d565b8061164984612070565b600f60405160200161165d93929190612a10565b6040516020818303038152906040525b9392505050565b6008546001600160a01b0316331461169e5760405162461bcd60e51b8152600401610b509061289c565b60148054911515620100000262ff000019909216919091179055565b6008546001600160a01b031633146116e45760405162461bcd60e51b8152600401610b509061289c565b601480549115156101000261ff0019909216919091179055565b6008546001600160a01b031633146117285760405162461bcd60e51b8152600401610b509061289c565b60148054911515650100000000000265ff000000000019909216919091179055565b6008546001600160a01b031633146117745760405162461bcd60e51b8152600401610b509061289c565b600a55565b8160008111801561178c57506013548111155b6117a85760405162461bcd60e51b8152600401610b5090612918565b601254816117b4610bad565b6117be919061294d565b11156117dc5760405162461bcd60e51b8152600401610b5090612965565b6008546001600160a01b031633146118065760405162461bcd60e51b8152600401610b509061289c565b610b218284611dd6565b6008546001600160a01b0316331461183a5760405162461bcd60e51b8152600401610b509061289c565b6001600160a01b03811661189f5760405162461bcd60e51b815260206004820152602660248201527f4f776e61626c653a206e6577206f776e657220697320746865207a65726f206160448201526564647265737360d01b6064820152608401610b50565b6118a881611f17565b50565b826000811180156118be57506013548111155b6118da5760405162461bcd60e51b8152600401610b5090612918565b601254816118e6610bad565b6118f0919061294d565b111561190e5760405162461bcd60e51b8152600401610b5090612965565b838060115461191d919061299c565b34101561193c5760405162461bcd60e51b8152600401610b50906129bb565b601454640100000000900460ff166119a05760405162461bcd60e51b815260206004820152602160248201527f54686520476f6c64204c6973742073616c65206973206e6f74206163746976656044820152602160f81b6064820152608401610b50565b336000908152600b602052604090205460ff1615611a1c5760405162461bcd60e51b815260206004820152603360248201527f596f757220616464726573732068617320616c726561647920636c61696d65646044820152722069747320476f6c64204c697374204e46542160681b6064820152608401610b50565b6040516bffffffffffffffffffffffff193360601b166020820152600090603401604051602081830303815290604052805190602001209050611a9685858080602002602001604051908101604052809392919081815260200183836020028082843760009201919091525050600a549150849050611dc0565b611aee5760405162461bcd60e51b815260206004820152602360248201527f5468697320697320616e20696e76616c696420476f6c64204c6973742070726f6044820152626f662160e81b6064820152608401610b50565b336000818152600b60205260409020805460ff19166001179055611b129087611dd6565b505050505050565b600081600111158015611b2e575060005482105b80156109bc575050600090815260046020526040902054600160e01b900460ff161590565b60008281526006602052604080822080546001600160a01b0319166001600160a01b0387811691821790925591518593918516917f8c5be1e5ebec7d5bd14f71427d1e84f3dd0314c0f7b2291e5b200ac8c7c3b92591a4505050565b6000611bba82611df0565b80519091506000906001600160a01b0316336001600160a01b03161480611be857508151611be890336108b9565b80611c03575033611bf884610a54565b6001600160a01b0316145b905080611c2357604051632ce44b5f60e11b815260040160405180910390fd5b846001600160a01b031682600001516001600160a01b031614611c585760405162a1148160e81b815260040160405180910390fd5b6001600160a01b038416611c7f57604051633a954ecd60e21b815260040160405180910390fd5b611c8f6000848460000151611b53565b6001600160a01b038581166000908152600560209081526040808320805467ffffffffffffffff198082166001600160401b0392831660001901831617909255898616808652838620805493841693831660019081018416949094179055898652600490945282852080546001600160e01b031916909417600160a01b429092169190910217909255908601808352912054909116611d7957600054811015611d7957825160008281526004602090815260409091208054918601516001600160401b0316600160a01b026001600160e01b03199092166001600160a01b03909316929092171790555b5082846001600160a01b0316866001600160a01b03167fddf252ad1be2c89b69c2b068fc378daa952ba7f163c4a11628f55a4df523b3ef60405160405180910390a4611079565b600082611dcd858461216d565b14949350505050565b610b6c8282604051806020016040528060008152506121e1565b60408051606081018252600080825260208201819052918101919091528180600111158015611e20575060005481105b15611efe57600081815260046020908152604091829020825160608101845290546001600160a01b0381168252600160a01b81046001600160401b031692820192909252600160e01b90910460ff16151591810182905290611efc5780516001600160a01b031615611e93579392505050565b5060001901600081815260046020908152604091829020825160608101845290546001600160a01b038116808352600160a01b82046001600160401b031693830193909352600160e01b900460ff1615159281019290925215611ef7579392505050565b611e93565b505b604051636f96cda160e11b815260040160405180910390fd5b600880546001600160a01b038381166001600160a01b0319831681179093556040519116919082907f8be0079c531659141344cd1fd0a4f28419497f9722a3daafe3b4186f6b6457e090600090a35050565b604051630a85bd0160e11b81526000906001600160a01b0385169063150b7a0290611f9e903390899088908890600401612ad4565b602060405180830381600087803b158015611fb857600080fd5b505af1925050508015611fe8575060408051601f3d908101601f19168201909252611fe591810190612b11565b60015b612043573d808015612016576040519150601f19603f3d011682016040523d82523d6000602084013e61201b565b606091505b50805161203b576040516368d2bf6b60e11b815260040160405180910390fd5b805181602001fd5b6001600160e01b031916630a85bd0160e11b1490505b949350505050565b6060600e80546109d190612861565b6060816120945750506040805180820190915260018152600360fc1b602082015290565b8160005b81156120be57806120a8816128fd565b91506120b79050600a83612b44565b9150612098565b6000816001600160401b038111156120d8576120d861254f565b6040519080825280601f01601f191660200182016040528015612102576020820181803683370190505b5090505b841561205957612117600183612b58565b9150612124600a86612b6f565b61212f90603061294d565b60f81b818381518110612144576121446128d1565b60200101906001600160f81b031916908160001a905350612166600a86612b44565b9450612106565b600081815b84518110156121d957600085828151811061218f5761218f6128d1565b602002602001015190508083116121b557600083815260208290526040902092506121c6565b600081815260208490526040902092505b50806121d1816128fd565b915050612172565b509392505050565b610b2183838360016000546001600160a01b03851661221257604051622e076360e81b815260040160405180910390fd5b836122305760405163b562e8dd60e01b815260040160405180910390fd5b6001600160a01b038516600081815260056020908152604080832080546fffffffffffffffffffffffffffffffff1981166001600160401b038083168c0181169182176801000000000000000067ffffffffffffffff1990941690921783900481168c01811690920217909155858452600490925290912080546001600160e01b031916909217600160a01b4290921691909102179055808085018380156122e157506001600160a01b0387163b15155b1561236a575b60405182906001600160a01b038916906000907fddf252ad1be2c89b69c2b068fc378daa952ba7f163c4a11628f55a4df523b3ef908290a46123326000888480600101955088611f69565b61234f576040516368d2bf6b60e11b815260040160405180910390fd5b808214156122e757826000541461236557600080fd5b6123b0565b5b6040516001830192906001600160a01b038916906000907fddf252ad1be2c89b69c2b068fc378daa952ba7f163c4a11628f55a4df523b3ef908290a48082141561236b575b50600055611079565b8280546123c590612861565b90600052602060002090601f0160209004810192826123e7576000855561242d565b82601f1061240057805160ff191683800117855561242d565b8280016001018555821561242d579182015b8281111561242d578251825591602001919060010190612412565b5061243992915061243d565b5090565b5b80821115612439576000815560010161243e565b6001600160e01b0319811681146118a857600080fd5b60006020828403121561247a57600080fd5b813561166d81612452565b60005b838110156124a0578181015183820152602001612488565b838111156114835750506000910152565b600081518084526124c9816020860160208601612485565b601f01601f19169290920160200192915050565b60208152600061166d60208301846124b1565b60006020828403121561250257600080fd5b5035919050565b80356001600160a01b038116811461252057600080fd5b919050565b6000806040838503121561253857600080fd5b61254183612509565b946020939093013593505050565b634e487b7160e01b600052604160045260246000fd5b60006001600160401b038084111561257f5761257f61254f565b604051601f8501601f19908116603f011681019082821181831017156125a7576125a761254f565b816040528093508581528686860111156125c057600080fd5b858560208301376000602087830101525050509392505050565b6000602082840312156125ec57600080fd5b81356001600160401b0381111561260257600080fd5b8201601f8101841361261357600080fd5b61205984823560208401612565565b8035801515811461252057600080fd5b60006020828403121561264457600080fd5b61166d82612622565b60008060006060848603121561266257600080fd5b61266b84612509565b925061267960208501612509565b9150604084013590509250925092565b60006020828403121561269b57600080fd5b61166d82612509565b6020808252825182820181905260009190848201906040850190845b818110156126dc578351835292840192918401916001016126c0565b50909695505050505050565b6000806000604084860312156126fd57600080fd5b8335925060208401356001600160401b038082111561271b57600080fd5b818601915086601f83011261272f57600080fd5b81358181111561273e57600080fd5b8760208260051b850101111561275357600080fd5b6020830194508093505050509250925092565b6000806040838503121561277957600080fd5b61278283612509565b915061279060208401612622565b90509250929050565b600080600080608085870312156127af57600080fd5b6127b885612509565b93506127c660208601612509565b92506040850135915060608501356001600160401b038111156127e857600080fd5b8501601f810187136127f957600080fd5b61280887823560208401612565565b91505092959194509250565b6000806040838503121561282757600080fd5b61283083612509565b915061279060208401612509565b6000806040838503121561285157600080fd5b8235915061279060208401612509565b600181811c9082168061287557607f821691505b6020821081141561289657634e487b7160e01b600052602260045260246000fd5b50919050565b6020808252818101527f4f776e61626c653a2063616c6c6572206973206e6f7420746865206f776e6572604082015260600190565b634e487b7160e01b600052603260045260246000fd5b634e487b7160e01b600052601160045260246000fd5b6000600019821415612911576129116128e7565b5060010190565b6020808252818101527f596f752063616e206e6f74206d696e742074686973206d616e79206974656d73604082015260600190565b60008219821115612960576129606128e7565b500190565b6020808252601c908201527f4d617820737570706c7920686173206265656e20657863656564656400000000604082015260600190565b60008160001904831182151516156129b6576129b66128e7565b500290565b60208082526035908201527f596f7520646964206e6f742073656e6420656e6f7567682045544820746f20636040820152746f6d706c657465207468697320707572636861736560581b606082015260800190565b600084516020612a238285838a01612485565b855191840191612a368184848a01612485565b8554920191600090600181811c9080831680612a5357607f831692505b858310811415612a7157634e487b7160e01b85526022600452602485fd5b808015612a855760018114612a9657612ac3565b60ff19851688528388019550612ac3565b60008b81526020902060005b85811015612abb5781548a820152908401908801612aa2565b505083880195505b50939b9a5050505050505050505050565b6001600160a01b0385811682528416602082015260408101839052608060608201819052600090612b07908301846124b1565b9695505050505050565b600060208284031215612b2357600080fd5b815161166d81612452565b634e487b7160e01b600052601260045260246000fd5b600082612b5357612b53612b2e565b500490565b600082821015612b6a57612b6a6128e7565b500390565b600082612b7e57612b7e612b2e565b50069056fea2646970667358221220d5ccc1ff0eae81f0fd1ab373e9ac78f59a6517e86f4ee895b13e135439952ce064736f6c634300080900334f776e61626c653a2063616c6c6572206973206e6f7420746865206f776e6572",
  "linkReferences": {},
  "deployedLinkReferences": {}
}